{
  "_format": "hh-sol-artifact-1",
  "contractName": "SotmNftLinker",
  "sourceName": "contracts/NFTLinker.sol",
  "abi": [
    {
      "inputs": [
        {
          "internalType": "address",
          "name": "gateway_",
          "type": "address"
        },
        {
          "internalType": "address",
          "name": "gasReceiver_",
          "type": "address"
        }
      ],
      "stateMutability": "nonpayable",
      "type": "constructor"
    },
    {
      "inputs": [],
      "name": "AlreadyInitialized",
      "type": "error"
    },
    {
      "inputs": [],
      "name": "InvalidAddress",
      "type": "error"
    },
    {
      "inputs": [],
      "name": "InvalidCodeHash",
      "type": "error"
    },
    {
      "inputs": [],
      "name": "InvalidImplementation",
      "type": "error"
    },
    {
      "inputs": [],
      "name": "InvalidOwner",
      "type": "error"
    },
    {
      "inputs": [],
      "name": "NotApprovedByGateway",
      "type": "error"
    },
    {
      "inputs": [],
      "name": "NotOwner",
      "type": "error"
    },
    {
      "inputs": [],
      "name": "NotProxy",
      "type": "error"
    },
    {
      "inputs": [],
      "name": "SetupFailed",
      "type": "error"
    },
    {
      "anonymous": false,
      "inputs": [
        {
          "indexed": true,
          "internalType": "address",
          "name": "owner",
          "type": "address"
        },
        {
          "indexed": true,
          "internalType": "address",
          "name": "approved",
          "type": "address"
        },
        {
          "indexed": true,
          "internalType": "uint256",
          "name": "tokenId",
          "type": "uint256"
        }
      ],
      "name": "Approval",
      "type": "event"
    },
    {
      "anonymous": false,
      "inputs": [
        {
          "indexed": true,
          "internalType": "address",
          "name": "owner",
          "type": "address"
        },
        {
          "indexed": true,
          "internalType": "address",
          "name": "operator",
          "type": "address"
        },
        {
          "indexed": false,
          "internalType": "bool",
          "name": "approved",
          "type": "bool"
        }
      ],
      "name": "ApprovalForAll",
      "type": "event"
    },
    {
      "anonymous": false,
      "inputs": [
        {
          "indexed": true,
          "internalType": "address",
          "name": "newOwner",
          "type": "address"
        }
      ],
      "name": "OwnershipTransferred",
      "type": "event"
    },
    {
      "anonymous": false,
      "inputs": [
        {
          "indexed": true,
          "internalType": "address",
          "name": "from",
          "type": "address"
        },
        {
          "indexed": true,
          "internalType": "address",
          "name": "to",
          "type": "address"
        },
        {
          "indexed": true,
          "internalType": "uint256",
          "name": "tokenId",
          "type": "uint256"
        }
      ],
      "name": "Transfer",
      "type": "event"
    },
    {
      "anonymous": false,
      "inputs": [
        {
          "indexed": true,
          "internalType": "address",
          "name": "newImplementation",
          "type": "address"
        }
      ],
      "name": "Upgraded",
      "type": "event"
    },
    {
      "inputs": [
        {
          "internalType": "address",
          "name": "to",
          "type": "address"
        },
        {
          "internalType": "uint256",
          "name": "tokenId",
          "type": "uint256"
        }
      ],
      "name": "approve",
      "outputs": [],
      "stateMutability": "nonpayable",
      "type": "function"
    },
    {
      "inputs": [
        {
          "internalType": "address",
          "name": "owner",
          "type": "address"
        }
      ],
      "name": "balanceOf",
      "outputs": [
        {
          "internalType": "uint256",
          "name": "",
          "type": "uint256"
        }
      ],
      "stateMutability": "view",
      "type": "function"
    },
    {
      "inputs": [],
      "name": "chainName",
      "outputs": [
        {
          "internalType": "string",
          "name": "",
          "type": "string"
        }
      ],
      "stateMutability": "view",
      "type": "function"
    },
    {
      "inputs": [],
      "name": "contractId",
      "outputs": [
        {
          "internalType": "bytes32",
          "name": "",
          "type": "bytes32"
        }
      ],
      "stateMutability": "pure",
      "type": "function"
    },
    {
      "inputs": [
        {
          "internalType": "bytes32",
          "name": "commandId",
          "type": "bytes32"
        },
        {
          "internalType": "string",
          "name": "sourceChain",
          "type": "string"
        },
        {
          "internalType": "string",
          "name": "sourceAddress",
          "type": "string"
        },
        {
          "internalType": "bytes",
          "name": "payload",
          "type": "bytes"
        }
      ],
      "name": "execute",
      "outputs": [],
      "stateMutability": "nonpayable",
      "type": "function"
    },
    {
      "inputs": [
        {
          "internalType": "bytes32",
          "name": "commandId",
          "type": "bytes32"
        },
        {
          "internalType": "string",
          "name": "sourceChain",
          "type": "string"
        },
        {
          "internalType": "string",
          "name": "sourceAddress",
          "type": "string"
        },
        {
          "internalType": "bytes",
          "name": "payload",
          "type": "bytes"
        },
        {
          "internalType": "string",
          "name": "tokenSymbol",
          "type": "string"
        },
        {
          "internalType": "uint256",
          "name": "amount",
          "type": "uint256"
        }
      ],
      "name": "executeWithToken",
      "outputs": [],
      "stateMutability": "nonpayable",
      "type": "function"
    },
    {
      "inputs": [],
      "name": "gasReceiver",
      "outputs": [
        {
          "internalType": "contract IAxelarGasService",
          "name": "",
          "type": "address"
        }
      ],
      "stateMutability": "view",
      "type": "function"
    },
    {
      "inputs": [],
      "name": "gateway",
      "outputs": [
        {
          "internalType": "contract IAxelarGateway",
          "name": "",
          "type": "address"
        }
      ],
      "stateMutability": "view",
      "type": "function"
    },
    {
      "inputs": [
        {
          "internalType": "uint256",
          "name": "tokenId",
          "type": "uint256"
        }
      ],
      "name": "getApproved",
      "outputs": [
        {
          "internalType": "address",
          "name": "",
          "type": "address"
        }
      ],
      "stateMutability": "view",
      "type": "function"
    },
    {
      "inputs": [
        {
          "internalType": "uint256",
          "name": "currTokenId",
          "type": "uint256"
        }
      ],
      "name": "getOriginalData",
      "outputs": [
        {
          "internalType": "string",
          "name": "",
          "type": "string"
        },
        {
          "internalType": "uint256",
          "name": "",
          "type": "uint256"
        }
      ],
      "stateMutability": "view",
      "type": "function"
    },
    {
      "inputs": [],
      "name": "implementation",
      "outputs": [
        {
          "internalType": "address",
          "name": "implementation_",
          "type": "address"
        }
      ],
      "stateMutability": "view",
      "type": "function"
    },
    {
      "inputs": [
        {
          "internalType": "address",
          "name": "owner",
          "type": "address"
        },
        {
          "internalType": "address",
          "name": "operator",
          "type": "address"
        }
      ],
      "name": "isApprovedForAll",
      "outputs": [
        {
          "internalType": "bool",
          "name": "",
          "type": "bool"
        }
      ],
      "stateMutability": "view",
      "type": "function"
    },
    {
      "inputs": [],
      "name": "name",
      "outputs": [
        {
          "internalType": "string",
          "name": "",
          "type": "string"
        }
      ],
      "stateMutability": "view",
      "type": "function"
    },
    {
      "inputs": [
        {
          "internalType": "uint256",
          "name": "",
          "type": "uint256"
        }
      ],
      "name": "original",
      "outputs": [
        {
          "internalType": "bytes",
          "name": "",
          "type": "bytes"
        }
      ],
      "stateMutability": "view",
      "type": "function"
    },
    {
      "inputs": [],
      "name": "owner",
      "outputs": [
        {
          "internalType": "address",
          "name": "owner_",
          "type": "address"
        }
      ],
      "stateMutability": "view",
      "type": "function"
    },
    {
      "inputs": [
        {
          "internalType": "uint256",
          "name": "tokenId",
          "type": "uint256"
        }
      ],
      "name": "ownerOf",
      "outputs": [
        {
          "internalType": "address",
          "name": "",
          "type": "address"
        }
      ],
      "stateMutability": "view",
      "type": "function"
    },
    {
      "inputs": [
        {
          "internalType": "uint256",
          "name": "currTokenId",
          "type": "uint256"
        }
      ],
      "name": "safeGetOriginalData",
      "outputs": [
        {
          "internalType": "string",
          "name": "",
          "type": "string"
        },
        {
          "internalType": "uint256",
          "name": "",
          "type": "uint256"
        }
      ],
      "stateMutability": "view",
      "type": "function"
    },
    {
      "inputs": [
        {
          "internalType": "address",
          "name": "from",
          "type": "address"
        },
        {
          "internalType": "address",
          "name": "to",
          "type": "address"
        },
        {
          "internalType": "uint256",
          "name": "tokenId",
          "type": "uint256"
        }
      ],
      "name": "safeTransferFrom",
      "outputs": [],
      "stateMutability": "nonpayable",
      "type": "function"
    },
    {
      "inputs": [
        {
          "internalType": "address",
          "name": "from",
          "type": "address"
        },
        {
          "internalType": "address",
          "name": "to",
          "type": "address"
        },
        {
          "internalType": "uint256",
          "name": "tokenId",
          "type": "uint256"
        },
        {
          "internalType": "bytes",
          "name": "data",
          "type": "bytes"
        }
      ],
      "name": "safeTransferFrom",
      "outputs": [],
      "stateMutability": "nonpayable",
      "type": "function"
    },
    {
      "inputs": [
        {
          "internalType": "address",
          "name": "operator",
          "type": "address"
        },
        {
          "internalType": "uint256",
          "name": "tokenId",
          "type": "uint256"
        },
        {
          "internalType": "string",
          "name": "destinationChain",
          "type": "string"
        },
        {
          "internalType": "address",
          "name": "destinationAddress",
          "type": "address"
        }
      ],
      "name": "sendNFT",
      "outputs": [],
      "stateMutability": "payable",
      "type": "function"
    },
    {
      "inputs": [
        {
          "internalType": "address",
          "name": "operator",
          "type": "address"
        },
        {
          "internalType": "bool",
          "name": "approved",
          "type": "bool"
        }
      ],
      "name": "setApprovalForAll",
      "outputs": [],
      "stateMutability": "nonpayable",
      "type": "function"
    },
    {
      "inputs": [
        {
          "internalType": "bytes",
          "name": "data",
          "type": "bytes"
        }
      ],
      "name": "setup",
      "outputs": [],
      "stateMutability": "nonpayable",
      "type": "function"
    },
    {
      "inputs": [
        {
          "internalType": "bytes4",
          "name": "interfaceId",
          "type": "bytes4"
        }
      ],
      "name": "supportsInterface",
      "outputs": [
        {
          "internalType": "bool",
          "name": "",
          "type": "bool"
        }
      ],
      "stateMutability": "view",
      "type": "function"
    },
    {
      "inputs": [],
      "name": "symbol",
      "outputs": [
        {
          "internalType": "string",
          "name": "",
          "type": "string"
        }
      ],
      "stateMutability": "view",
      "type": "function"
    },
    {
      "inputs": [
        {
          "internalType": "uint256",
          "name": "tokenId",
          "type": "uint256"
        }
      ],
      "name": "tokenURI",
      "outputs": [
        {
          "internalType": "string",
          "name": "",
          "type": "string"
        }
      ],
      "stateMutability": "view",
      "type": "function"
    },
    {
      "inputs": [
        {
          "internalType": "address",
          "name": "from",
          "type": "address"
        },
        {
          "internalType": "address",
          "name": "to",
          "type": "address"
        },
        {
          "internalType": "uint256",
          "name": "tokenId",
          "type": "uint256"
        }
      ],
      "name": "transferFrom",
      "outputs": [],
      "stateMutability": "nonpayable",
      "type": "function"
    },
    {
      "inputs": [
        {
          "internalType": "address",
          "name": "newOwner",
          "type": "address"
        }
      ],
      "name": "transferOwnership",
      "outputs": [],
      "stateMutability": "nonpayable",
      "type": "function"
    },
    {
      "inputs": [
        {
          "internalType": "address",
          "name": "newImplementation",
          "type": "address"
        },
        {
          "internalType": "bytes32",
          "name": "newImplementationCodeHash",
          "type": "bytes32"
        },
        {
          "internalType": "bytes",
          "name": "params",
          "type": "bytes"
        }
      ],
      "name": "upgrade",
      "outputs": [],
      "stateMutability": "nonpayable",
      "type": "function"
    }
  ],
  "bytecode": "0x60c06040523480156200001157600080fd5b5060405162003b9e38038062003b9e8339810160408190526200003491620001a6565b604080518082018252601181527020bc32b630b91027232a102634b735b2b960791b60208083019182528351808501909452600384526210539360ea1b908401528151859391620000899160009190620000e3565b5080516200009f906001906020840190620000e3565b5050506001600160a01b038116620000ca5760405163e6c4247b60e01b815260040160405180910390fd5b6001600160a01b039081166080521660a052506200021b565b828054620000f190620001de565b90600052602060002090601f01602090048101928262000115576000855562000160565b82601f106200013057805160ff191683800117855562000160565b8280016001018555821562000160579182015b828111156200016057825182559160200191906001019062000143565b506200016e92915062000172565b5090565b5b808211156200016e576000815560010162000173565b80516001600160a01b0381168114620001a157600080fd5b919050565b60008060408385031215620001ba57600080fd5b620001c58362000189565b9150620001d56020840162000189565b90509250929050565b600181811c90821680620001f357607f821691505b602082108114156200021557634e487b7160e01b600052602260045260246000fd5b50919050565b60805160a0516139336200026b6000396000818161043801528181611c430152611e1d01526000818161027f015281816108c901528181610d3001528181611cdc0152611eb601526139336000f3fe6080604052600436106101b75760003560e01c806370a08231116100ec5780639ded06df1161008a578063b88d4fde11610064578063b88d4fde14610549578063c87b56dd14610569578063e985e9c514610589578063f2fde38b146105d257600080fd5b80639ded06df146104e9578063a22cb46514610509578063a3499c731461052957600080fd5b80638291286c116100c65780638291286c1461045a5780638da5cb5b1461048d57806393349876146104c157806395d89b41146104d457600080fd5b806370a08231146103d8578063717eb03f1461040657806380d14b4a1461042657600080fd5b806323b872dd116101595780634497771111610133578063449777111461034457806349160658146103645780635c60da1b146103845780636352211e146103b857600080fd5b806323b872dd146102d65780633fdab101146102f657806342842e0e1461032457600080fd5b8063095ea7b311610195578063095ea7b31461024b578063116191b61461026d5780631a98b2e0146102a15780631c93b03a146102c157600080fd5b806301ffc9a7146101bc57806306fdde03146101f1578063081812fc14610213575b600080fd5b3480156101c857600080fd5b506101dc6101d7366004612bb0565b6105f2565b60405190151581526020015b60405180910390f35b3480156101fd57600080fd5b5061020661068f565b6040516101e89190612c25565b34801561021f57600080fd5b5061023361022e366004612c38565b610721565b6040516001600160a01b0390911681526020016101e8565b34801561025757600080fd5b5061026b610266366004612c66565b610748565b005b34801561027957600080fd5b506102337f000000000000000000000000000000000000000000000000000000000000000081565b3480156102ad57600080fd5b5061026b6102bc366004612cdb565b61087f565b3480156102cd57600080fd5b5061020661098a565b3480156102e257600080fd5b5061026b6102f1366004612db5565b610a18565b34801561030257600080fd5b50610316610311366004612c38565b610a9f565b6040516101e8929190612df6565b34801561033057600080fd5b5061026b61033f366004612db5565b610c01565b34801561035057600080fd5b5061031661035f366004612c38565b610c1c565b34801561037057600080fd5b5061026b61037f366004612e18565b610ce6565b34801561039057600080fd5b507f360894a13ba1a3210667c828492db98dca3e2076cc3735a920a3ca505d382bbc54610233565b3480156103c457600080fd5b506102336103d3366004612c38565b610df6565b3480156103e457600080fd5b506103f86103f3366004612ebc565b610e5b565b6040519081526020016101e8565b34801561041257600080fd5b50610206610421366004612c38565b610ef5565b34801561043257600080fd5b506102337f000000000000000000000000000000000000000000000000000000000000000081565b34801561046657600080fd5b507f52294b55dcfb7f630fe6dbc0c0a279ef27c264147cfbd7925b87ad163c52ab516103f8565b34801561049957600080fd5b507f02016836a56b71f0d02689e69e326f4f4c1b9057164ef592671cf0d37c8040c054610233565b61026b6104cf366004612fa6565b610f0e565b3480156104e057600080fd5b50610206611017565b3480156104f557600080fd5b5061026b610504366004613012565b611026565b34801561051557600080fd5b5061026b610524366004613062565b61109f565b34801561053557600080fd5b5061026b61054436600461309b565b6110aa565b34801561055557600080fd5b5061026b6105643660046130f7565b6113ae565b34801561057557600080fd5b50610206610584366004612c38565b611436565b34801561059557600080fd5b506101dc6105a4366004613177565b6001600160a01b03918216600090815260056020908152604080832093909416825291909152205460ff1690565b3480156105de57600080fd5b5061026b6105ed366004612ebc565b611547565b60006001600160e01b031982167f80ac58cd00000000000000000000000000000000000000000000000000000000148061065557506001600160e01b031982167f5b5e139f00000000000000000000000000000000000000000000000000000000145b8061068957507f01ffc9a7000000000000000000000000000000000000000000000000000000006001600160e01b03198316145b92915050565b60606000805461069e906131a5565b80601f01602080910402602001604051908101604052809291908181526020018280546106ca906131a5565b80156107175780601f106106ec57610100808354040283529160200191610717565b820191906000526020600020905b8154815290600101906020018083116106fa57829003601f168201915b5050505050905090565b600061072c8261162f565b506000908152600460205260409020546001600160a01b031690565b600061075382610df6565b9050806001600160a01b0316836001600160a01b031614156107e25760405162461bcd60e51b815260206004820152602160248201527f4552433732313a20617070726f76616c20746f2063757272656e74206f776e6560448201527f720000000000000000000000000000000000000000000000000000000000000060648201526084015b60405180910390fd5b336001600160a01b03821614806107fe57506107fe81336105a4565b6108705760405162461bcd60e51b815260206004820152603e60248201527f4552433732313a20617070726f76652063616c6c6572206973206e6f7420746f60448201527f6b656e206f776e6572206e6f7220617070726f76656420666f7220616c6c000060648201526084016107d9565b61087a8383611696565b505050565b600085856040516108919291906131e0565b6040519081900381207f1876eed900000000000000000000000000000000000000000000000000000000825291506001600160a01b037f00000000000000000000000000000000000000000000000000000000000000001690631876eed99061090e908e908e908e908e908e9089908d908d908d90600401613219565b602060405180830381600087803b15801561092857600080fd5b505af115801561093c573d6000803e3d6000fd5b505050506040513d601f19601f820116820180604052508101906109609190613278565b61097d57604051631403112d60e21b815260040160405180910390fd5b5050505050505050505050565b60088054610997906131a5565b80601f01602080910402602001604051908101604052809291908181526020018280546109c3906131a5565b8015610a105780601f106109e557610100808354040283529160200191610a10565b820191906000526020600020905b8154815290600101906020018083116109f357829003601f168201915b505050505081565b610a223382611711565b610a945760405162461bcd60e51b815260206004820152602e60248201527f4552433732313a2063616c6c6572206973206e6f7420746f6b656e206f776e6560448201527f72206e6f7220617070726f76656400000000000000000000000000000000000060648201526084016107d9565b61087a83838361178f565b6040517f4497771100000000000000000000000000000000000000000000000000000000815260048101829052606090600090309063449777119060240160006040518083038186803b158015610af557600080fd5b505afa925050508015610b2a57506040513d6000823e601f3d908101601f19168201604052610b2791908101906132da565b60015b610bf7573d808015610b58576040519150601f19603f3d011682016040523d82523d6000602084013e610b5d565b606091505b50600884818054610b6d906131a5565b80601f0160208091040260200160405190810160405280929190818152602001828054610b99906131a5565b8015610be65780601f10610bbb57610100808354040283529160200191610be6565b820191906000526020600020905b815481529060010190602001808311610bc957829003601f168201915b505050505091509250925050915091565b9094909350915050565b61087a838383604051806020016040528060008152506113ae565b60606000806000806000600760008881526020019081526020016000208054610c44906131a5565b80601f0160208091040260200160405190810160405280929190818152602001828054610c70906131a5565b8015610cbd5780601f10610c9257610100808354040283529160200191610cbd565b820191906000526020600020905b815481529060010190602001808311610ca057829003601f168201915b5050505050806020019051810190610cd59190613321565b509199919850909650505050505050565b60008282604051610cf89291906131e0565b6040519081900381207f5f6970c300000000000000000000000000000000000000000000000000000000825291506001600160a01b037f00000000000000000000000000000000000000000000000000000000000000001690635f6970c390610d6f908b908b908b908b908b908990600401613396565b602060405180830381600087803b158015610d8957600080fd5b505af1158015610d9d573d6000803e3d6000fd5b505050506040513d601f19601f82011682018060405250810190610dc19190613278565b610dde57604051631403112d60e21b815260040160405180910390fd5b610dec878787878787611969565b5050505050505050565b6000818152600260205260408120546001600160a01b0316806106895760405162461bcd60e51b815260206004820152601860248201527f4552433732313a20696e76616c696420746f6b656e204944000000000000000060448201526064016107d9565b60006001600160a01b038216610ed95760405162461bcd60e51b815260206004820152602960248201527f4552433732313a2061646472657373207a65726f206973206e6f74206120766160448201527f6c6964206f776e6572000000000000000000000000000000000000000000000060648201526084016107d9565b506001600160a01b031660009081526003602052604090205490565b60076020526000908152604090208054610997906131a5565b6001600160a01b038416301415610f8f5733610f2984610df6565b6001600160a01b031614610f7f5760405162461bcd60e51b815260206004820152600e60248201527f4e4f545f594f55525f544f4b454e00000000000000000000000000000000000060448201526064016107d9565b610f8a838383611b45565b611011565b6001600160a01b0384166323b872dd336040516001600160e01b031960e084901b1681526001600160a01b03909116600482015230602482015260448101869052606401600060405180830381600087803b158015610fed57600080fd5b505af1158015611001573d6000803e3d6000fd5b5050505061101184848484611d46565b50505050565b60606001805461069e906131a5565b60006110507f360894a13ba1a3210667c828492db98dca3e2076cc3735a920a3ca505d382bbc5490565b6001600160a01b03161415611091576040517fbf10dd3a00000000000000000000000000000000000000000000000000000000815260040160405180910390fd5b61109b8282611f20565b5050565b61109b338383611f89565b336110d37f02016836a56b71f0d02689e69e326f4f4c1b9057164ef592671cf0d37c8040c05490565b6001600160a01b0316146110fa576040516330cd747160e01b815260040160405180910390fd5b306001600160a01b0316638291286c6040518163ffffffff1660e01b815260040160206040518083038186803b15801561113357600080fd5b505afa158015611147573d6000803e3d6000fd5b505050506040513d601f19601f8201168201806040525081019061116b91906133d7565b846001600160a01b0316638291286c6040518163ffffffff1660e01b815260040160206040518083038186803b1580156111a457600080fd5b505afa1580156111b8573d6000803e3d6000fd5b505050506040513d601f19601f820116820180604052508101906111dc91906133d7565b14611213576040517f68155f9a00000000000000000000000000000000000000000000000000000000815260040160405180910390fd5b836001600160a01b03163f8314611256576040517f8f84fb2400000000000000000000000000000000000000000000000000000000815260040160405180910390fd5b8015611353576000846001600160a01b0316639ded06df60e01b84846040516024016112839291906133f0565b60408051601f198184030181529181526020820180517bffffffffffffffffffffffffffffffffffffffffffffffffffffffff166001600160e01b03199094169390931790925290516112d69190613404565b600060405180830381855af49150503d8060008114611311576040519150601f19603f3d011682016040523d82523d6000602084013e611316565b606091505b5050905080611351576040517f97905dfb00000000000000000000000000000000000000000000000000000000815260040160405180910390fd5b505b6040516001600160a01b038516907fbc7cd75a20ee27fd9adebab32041f755214dbc6bffa90cc0225b39da2e5c2d3b90600090a25050507f360894a13ba1a3210667c828492db98dca3e2076cc3735a920a3ca505d382bbc55565b6113b83383611711565b61142a5760405162461bcd60e51b815260206004820152602e60248201527f4552433732313a2063616c6c6572206973206e6f7420746f6b656e206f776e6560448201527f72206e6f7220617070726f76656400000000000000000000000000000000000060648201526084016107d9565b61101184848484612058565b60606114418261162f565b6000828152600660205260408120805461145a906131a5565b80601f0160208091040260200160405190810160405280929190818152602001828054611486906131a5565b80156114d35780601f106114a8576101008083540402835291602001916114d3565b820191906000526020600020905b8154815290600101906020018083116114b657829003601f168201915b5050505050905060006114f160408051602081019091526000815290565b9050805160001415611504575092915050565b81511561153657808260405160200161151e929190613420565b60405160208183030381529060405292505050919050565b61153f846120d6565b949350505050565b336115707f02016836a56b71f0d02689e69e326f4f4c1b9057164ef592671cf0d37c8040c05490565b6001600160a01b031614611597576040516330cd747160e01b815260040160405180910390fd5b6001600160a01b0381166115d7576040517f49e27cff00000000000000000000000000000000000000000000000000000000815260040160405180910390fd5b6040516001600160a01b038216907f04dba622d284ed0014ee4b9a6a68386be1a4c08a4913ae272de89199cc68616390600090a27f02016836a56b71f0d02689e69e326f4f4c1b9057164ef592671cf0d37c8040c055565b6000818152600260205260409020546001600160a01b03166116935760405162461bcd60e51b815260206004820152601860248201527f4552433732313a20696e76616c696420746f6b656e204944000000000000000060448201526064016107d9565b50565b6000818152600460205260409020805473ffffffffffffffffffffffffffffffffffffffff19166001600160a01b03841690811790915581906116d882610df6565b6001600160a01b03167f8c5be1e5ebec7d5bd14f71427d1e84f3dd0314c0f7b2291e5b200ac8c7c3b92560405160405180910390a45050565b60008061171d83610df6565b9050806001600160a01b0316846001600160a01b0316148061176457506001600160a01b0380821660009081526005602090815260408083209388168352929052205460ff165b8061153f5750836001600160a01b031661177d84610721565b6001600160a01b031614949350505050565b826001600160a01b03166117a282610df6565b6001600160a01b03161461181e5760405162461bcd60e51b815260206004820152602560248201527f4552433732313a207472616e736665722066726f6d20696e636f72726563742060448201527f6f776e657200000000000000000000000000000000000000000000000000000060648201526084016107d9565b6001600160a01b0382166118995760405162461bcd60e51b8152602060048201526024808201527f4552433732313a207472616e7366657220746f20746865207a65726f2061646460448201527f726573730000000000000000000000000000000000000000000000000000000060648201526084016107d9565b6118a4600082611696565b6001600160a01b03831660009081526003602052604081208054600192906118cd908490613465565b90915550506001600160a01b03821660009081526003602052604081208054600192906118fb90849061347c565b9091555050600081815260026020526040808220805473ffffffffffffffffffffffffffffffffffffffff19166001600160a01b0386811691821790925591518493918716917fddf252ad1be2c89b69c2b068fc378daa952ba7f163c4a11628f55a4df523b3ef91a4505050565b306001600160a01b03166119b285858080601f01602080910402602001604051908101604052809392919081815260200183838082843760009201919091525061214a92505050565b6001600160a01b031614611a085760405162461bcd60e51b815260206004820152600c60248201527f4e4f545f415f4c494e4b4552000000000000000000000000000000000000000060448201526064016107d9565b600080808080611a1a86880188613494565b945094509450945094506008604051611a33919061352b565b604051809103902085805190602001201415611acf576040517f23b872dd0000000000000000000000000000000000000000000000000000000081523060048201526001600160a01b038381166024830152604482018590528516906323b872dd90606401600060405180830381600087803b158015611ab257600080fd5b505af1158015611ac6573d6000803e3d6000fd5b5050505061097d565b600085858584604051602001611ae8949392919061359d565b60408051601f19818403018152918152815160208084019182206000818152600790925292902083519394509192611b21929190612acb565b50611b2c8482612249565b611b368184612263565b50505050505050505050505050565b611b4e8361230c565b6000838152600760205260408120805482918291829190611b6e906131a5565b80601f0160208091040260200160405190810160405280929190818152602001828054611b9a906131a5565b8015611be75780601f10611bbc57610100808354040283529160200191611be7565b820191906000526020600020905b815481529060010190602001808311611bca57829003601f168201915b5050505050806020019051810190611bff9190613321565b935093509350935060008484848885604051602001611c229594939291906135e2565b60408051601f1981840301815291905290506000611c3f3061234c565b90507f00000000000000000000000000000000000000000000000000000000000000006001600160a01b0316630c93e3bb34308b8587336040518763ffffffff1660e01b8152600401611c96959493929190613631565b6000604051808303818588803b158015611caf57600080fd5b505af1158015611cc3573d6000803e3d6000fd5b5050604051631c92115f60e01b81526001600160a01b037f0000000000000000000000000000000000000000000000000000000000000000169350631c92115f9250611d1891508b9085908790600401613690565b600060405180830381600087803b158015611d3257600080fd5b505af1158015611b36573d6000803e3d6000fd5b6040517fc87b56dd000000000000000000000000000000000000000000000000000000008152600481018490526000906001600160a01b0386169063c87b56dd9060240160006040518083038186803b158015611da257600080fd5b505afa158015611db6573d6000803e3d6000fd5b505050506040513d6000823e601f3d908101601f19168201604052611dde91908101906136d3565b90506000600886868585604051602001611dfc959493929190613708565b60408051601f1981840301815291905290506000611e193061234c565b90507f00000000000000000000000000000000000000000000000000000000000000006001600160a01b0316630c93e3bb3430888587336040518763ffffffff1660e01b8152600401611e70959493929190613631565b6000604051808303818588803b158015611e8957600080fd5b505af1158015611e9d573d6000803e3d6000fd5b5050604051631c92115f60e01b81526001600160a01b037f0000000000000000000000000000000000000000000000000000000000000000169350631c92115f9250611ef29150889085908790600401613690565b600060405180830381600087803b158015611f0c57600080fd5b505af115801561097d573d6000803e3d6000fd5b6000611f2e828401846137c8565b905060088054611f3d906131a5565b159050611f76576040517f0dc149f000000000000000000000000000000000000000000000000000000000815260040160405180910390fd5b8051611011906008906020840190612acb565b816001600160a01b0316836001600160a01b03161415611feb5760405162461bcd60e51b815260206004820152601960248201527f4552433732313a20617070726f766520746f2063616c6c65720000000000000060448201526064016107d9565b6001600160a01b03838116600081815260056020908152604080832094871680845294825291829020805460ff191686151590811790915591519182527f17307eab39ab6107e8899845ad3d59bd9653f200f220920489ca2b5937696c31910160405180910390a3505050565b61206384848461178f565b61206f84848484612600565b6110115760405162461bcd60e51b815260206004820152603260248201527f4552433732313a207472616e7366657220746f206e6f6e20455243373231526560448201527131b2b4bb32b91034b6b83632b6b2b73a32b960711b60648201526084016107d9565b60606120e18261162f565b60006120f860408051602081019091526000815290565b905060008151116121185760405180602001604052806000815250612143565b8061212284612758565b604051602001612133929190613420565b6040516020818303038152906040525b9392505050565b80516000908290602a146121615750600092915050565b60008060025b602a81101561223f57838181518110612182576121826137fd565b016020015160f81c9150606182108015906121a1575060668260ff1611155b156121b8576121b1605783613813565b9150612214565b60418260ff16101580156121d0575060468260ff1611155b156121e0576121b1603783613813565b60308260ff16101580156121f8575060398260ff1611155b15612208576121b1603083613813565b50600095945050505050565b6002612221826029613465565b60ff8416911b1b92909217918061223781613836565b915050612167565b5090949350505050565b61109b828260405180602001604052806000815250612856565b6000828152600260205260409020546001600160a01b03166122ed5760405162461bcd60e51b815260206004820152602e60248201527f45524337323155524953746f726167653a2055524920736574206f66206e6f6e60448201527f6578697374656e7420746f6b656e00000000000000000000000000000000000060648201526084016107d9565b6000828152600660209081526040909120825161087a92840190612acb565b612315816128d4565b6000818152600660205260409020805461232e906131a5565b15905061169357600081815260066020526040812061169391612b4f565b604051606082811b6bffffffffffffffffffffffff191660208301529060009060340160408051601f19818403018152828201909152601082527f3031323334353637383961626364656600000000000000000000000000000000602083015280519092506000906123bf906002613851565b6123ca90600261347c565b67ffffffffffffffff8111156123e2576123e2612ed9565b6040519080825280601f01601f19166020018201604052801561240c576020820181803683370190505b509050600360fc1b81600081518110612427576124276137fd565b60200101906001600160f81b031916908160001a9053507f780000000000000000000000000000000000000000000000000000000000000081600181518110612472576124726137fd565b60200101906001600160f81b031916908160001a90535060005b83518110156125f7578260048583815181106124aa576124aa6137fd565b016020015182517fff0000000000000000000000000000000000000000000000000000000000000090911690911c60f81c9081106124ea576124ea6137fd565b01602001517fff00000000000000000000000000000000000000000000000000000000000000168261251d836002613851565b61252890600261347c565b81518110612538576125386137fd565b60200101906001600160f81b031916908160001a90535082848281518110612562576125626137fd565b602091010151815160f89190911c600f16908110612582576125826137fd565b01602001517fff0000000000000000000000000000000000000000000000000000000000000016826125b5836002613851565b6125c090600361347c565b815181106125d0576125d06137fd565b60200101906001600160f81b031916908160001a9053506125f081613836565b905061248c565b50949350505050565b60006001600160a01b0384163b1561274d57604051630a85bd0160e11b81526001600160a01b0385169063150b7a0290612644903390899088908890600401613870565b602060405180830381600087803b15801561265e57600080fd5b505af192505050801561268e575060408051601f3d908101601f1916820190925261268b918101906138a2565b60015b612733573d8080156126bc576040519150601f19603f3d011682016040523d82523d6000602084013e6126c1565b606091505b50805161272b5760405162461bcd60e51b815260206004820152603260248201527f4552433732313a207472616e7366657220746f206e6f6e20455243373231526560448201527131b2b4bb32b91034b6b83632b6b2b73a32b960711b60648201526084016107d9565b805181602001fd5b6001600160e01b031916630a85bd0160e11b14905061153f565b506001949350505050565b60608161277c5750506040805180820190915260018152600360fc1b602082015290565b8160005b81156127a6578061279081613836565b915061279f9050600a836138d5565b9150612780565b60008167ffffffffffffffff8111156127c1576127c1612ed9565b6040519080825280601f01601f1916602001820160405280156127eb576020820181803683370190505b5090505b841561153f57612800600183613465565b915061280d600a866138e9565b61281890603061347c565b60f81b81838151811061282d5761282d6137fd565b60200101906001600160f81b031916908160001a90535061284f600a866138d5565b94506127ef565b612860838361297c565b61286d6000848484612600565b61087a5760405162461bcd60e51b815260206004820152603260248201527f4552433732313a207472616e7366657220746f206e6f6e20455243373231526560448201527131b2b4bb32b91034b6b83632b6b2b73a32b960711b60648201526084016107d9565b60006128df82610df6565b90506128ec600083611696565b6001600160a01b0381166000908152600360205260408120805460019290612915908490613465565b9091555050600082815260026020526040808220805473ffffffffffffffffffffffffffffffffffffffff19169055518391906001600160a01b038416907fddf252ad1be2c89b69c2b068fc378daa952ba7f163c4a11628f55a4df523b3ef908390a45050565b6001600160a01b0382166129d25760405162461bcd60e51b815260206004820181905260248201527f4552433732313a206d696e7420746f20746865207a65726f206164647265737360448201526064016107d9565b6000818152600260205260409020546001600160a01b031615612a375760405162461bcd60e51b815260206004820152601c60248201527f4552433732313a20746f6b656e20616c7265616479206d696e7465640000000060448201526064016107d9565b6001600160a01b0382166000908152600360205260408120805460019290612a6090849061347c565b9091555050600081815260026020526040808220805473ffffffffffffffffffffffffffffffffffffffff19166001600160a01b03861690811790915590518392907fddf252ad1be2c89b69c2b068fc378daa952ba7f163c4a11628f55a4df523b3ef908290a45050565b828054612ad7906131a5565b90600052602060002090601f016020900481019282612af95760008555612b3f565b82601f10612b1257805160ff1916838001178555612b3f565b82800160010185558215612b3f579182015b82811115612b3f578251825591602001919060010190612b24565b50612b4b929150612b85565b5090565b508054612b5b906131a5565b6000825580601f10612b6b575050565b601f01602090049060005260206000209081019061169391905b5b80821115612b4b5760008155600101612b86565b6001600160e01b03198116811461169357600080fd5b600060208284031215612bc257600080fd5b813561214381612b9a565b60005b83811015612be8578181015183820152602001612bd0565b838111156110115750506000910152565b60008151808452612c11816020860160208601612bcd565b601f01601f19169290920160200192915050565b6020815260006121436020830184612bf9565b600060208284031215612c4a57600080fd5b5035919050565b6001600160a01b038116811461169357600080fd5b60008060408385031215612c7957600080fd5b8235612c8481612c51565b946020939093013593505050565b60008083601f840112612ca457600080fd5b50813567ffffffffffffffff811115612cbc57600080fd5b602083019150836020828501011115612cd457600080fd5b9250929050565b60008060008060008060008060008060c08b8d031215612cfa57600080fd5b8a35995060208b013567ffffffffffffffff80821115612d1957600080fd5b612d258e838f01612c92565b909b50995060408d0135915080821115612d3e57600080fd5b612d4a8e838f01612c92565b909950975060608d0135915080821115612d6357600080fd5b612d6f8e838f01612c92565b909750955060808d0135915080821115612d8857600080fd5b50612d958d828e01612c92565b9150809450508092505060a08b013590509295989b9194979a5092959850565b600080600060608486031215612dca57600080fd5b8335612dd581612c51565b92506020840135612de581612c51565b929592945050506040919091013590565b604081526000612e096040830185612bf9565b90508260208301529392505050565b60008060008060008060006080888a031215612e3357600080fd5b87359650602088013567ffffffffffffffff80821115612e5257600080fd5b612e5e8b838c01612c92565b909850965060408a0135915080821115612e7757600080fd5b612e838b838c01612c92565b909650945060608a0135915080821115612e9c57600080fd5b50612ea98a828b01612c92565b989b979a50959850939692959293505050565b600060208284031215612ece57600080fd5b813561214381612c51565b634e487b7160e01b600052604160045260246000fd5b604051601f8201601f1916810167ffffffffffffffff81118282101715612f1857612f18612ed9565b604052919050565b600067ffffffffffffffff821115612f3a57612f3a612ed9565b50601f01601f191660200190565b6000612f5b612f5684612f20565b612eef565b9050828152838383011115612f6f57600080fd5b828260208301376000602084830101529392505050565b600082601f830112612f9757600080fd5b61214383833560208501612f48565b60008060008060808587031215612fbc57600080fd5b8435612fc781612c51565b935060208501359250604085013567ffffffffffffffff811115612fea57600080fd5b612ff687828801612f86565b925050606085013561300781612c51565b939692955090935050565b6000806020838503121561302557600080fd5b823567ffffffffffffffff81111561303c57600080fd5b61304885828601612c92565b90969095509350505050565b801515811461169357600080fd5b6000806040838503121561307557600080fd5b823561308081612c51565b9150602083013561309081613054565b809150509250929050565b600080600080606085870312156130b157600080fd5b84356130bc81612c51565b935060208501359250604085013567ffffffffffffffff8111156130df57600080fd5b6130eb87828801612c92565b95989497509550505050565b6000806000806080858703121561310d57600080fd5b843561311881612c51565b9350602085013561312881612c51565b925060408501359150606085013567ffffffffffffffff81111561314b57600080fd5b8501601f8101871361315c57600080fd5b61316b87823560208401612f48565b91505092959194509250565b6000806040838503121561318a57600080fd5b823561319581612c51565b9150602083013561309081612c51565b600181811c908216806131b957607f821691505b602082108114156131da57634e487b7160e01b600052602260045260246000fd5b50919050565b8183823760009101908152919050565b81835281816020850137506000828201602090810191909152601f909101601f19169091010190565b89815260c06020820152600061323360c083018a8c6131f0565b828103604084015261324681898b6131f0565b905086606084015282810360808401526132618186886131f0565b9150508260a08301529a9950505050505050505050565b60006020828403121561328a57600080fd5b815161214381613054565b600082601f8301126132a657600080fd5b81516132b4612f5682612f20565b8181528460208386010111156132c957600080fd5b61153f826020830160208701612bcd565b600080604083850312156132ed57600080fd5b825167ffffffffffffffff81111561330457600080fd5b61331085828601613295565b925050602083015190509250929050565b6000806000806080858703121561333757600080fd5b845167ffffffffffffffff8082111561334f57600080fd5b61335b88838901613295565b95506020870151915061336d82612c51565b6040870151606088015192955093508082111561338957600080fd5b5061316b87828801613295565b8681526080602082015260006133b06080830187896131f0565b82810360408401526133c38186886131f0565b915050826060830152979650505050505050565b6000602082840312156133e957600080fd5b5051919050565b60208152600061153f6020830184866131f0565b60008251613416818460208701612bcd565b9190910192915050565b60008351613432818460208801612bcd565b835190830190613446818360208801612bcd565b01949350505050565b634e487b7160e01b600052601160045260246000fd5b6000828210156134775761347761344f565b500390565b6000821982111561348f5761348f61344f565b500190565b600080600080600060a086880312156134ac57600080fd5b853567ffffffffffffffff808211156134c457600080fd5b6134d089838a01612f86565b9650602088013591506134e282612c51565b909450604087013593506060870135906134fb82612c51565b9092506080870135908082111561351157600080fd5b5061351e88828901612f86565b9150509295509295909350565b6000808354613539816131a5565b60018281168015613551576001811461356257613591565b60ff19841687528287019450613591565b8760005260208060002060005b858110156135885781548a82015290840190820161356f565b50505082870194505b50929695505050505050565b6080815260006135b06080830187612bf9565b6001600160a01b038616602084015284604084015282810360608401526135d78185612bf9565b979650505050505050565b60a0815260006135f560a0830188612bf9565b6001600160a01b038781166020850152604084018790528516606084015282810360808401526136258185612bf9565b98975050505050505050565b60006001600160a01b03808816835260a0602084015261365460a0840188612bf9565b83810360408501526136668188612bf9565b9050838103606085015261367a8187612bf9565b9250508084166080840152509695505050505050565b6060815260006136a36060830186612bf9565b82810360208401526136b58186612bf9565b905082810360408401526136c98185612bf9565b9695505050505050565b6000602082840312156136e557600080fd5b815167ffffffffffffffff8111156136fc57600080fd5b61153f84828501613295565b60a08152600080875461371a816131a5565b8060a086015260c060018084166000811461373c576001811461375057613781565b60ff1985168884015260e088019550613781565b8c60005260208060002060005b868110156137785781548b820187015290840190820161375d565b8a018501975050505b505050505061379b60208401886001600160a01b03169052565b8560408401526137b660608401866001600160a01b03169052565b82810360808401526136258185612bf9565b6000602082840312156137da57600080fd5b813567ffffffffffffffff8111156137f157600080fd5b61153f84828501612f86565b634e487b7160e01b600052603260045260246000fd5b600060ff821660ff84168082101561382d5761382d61344f565b90039392505050565b600060001982141561384a5761384a61344f565b5060010190565b600081600019048311821515161561386b5761386b61344f565b500290565b60006001600160a01b038087168352808616602084015250836040830152608060608301526136c96080830184612bf9565b6000602082840312156138b457600080fd5b815161214381612b9a565b634e487b7160e01b600052601260045260246000fd5b6000826138e4576138e46138bf565b500490565b6000826138f8576138f86138bf565b50069056fea264697066735822122062398478e0e78d41f52278348e17dec80244f0fed2c8542d1100c457fe3c32f964736f6c63430008090033",
  "linkReferences": {},
  "deployedLinkReferences": {}
}