{
    "_format": "hh-sol-artifact-1",
    "contractName": "SotmNftLinker",
    "sourceName": "contracts/NFTLinker.sol",
    "abi": [
        {
            "inputs": [
                {
                    "internalType": "address",
                    "name": "gateway_",
                    "type": "address"
                },
                {
                    "internalType": "address",
                    "name": "gasReceiver_",
                    "type": "address"
                }
            ],
            "stateMutability": "nonpayable",
            "type": "constructor"
        },
        {
            "inputs": [],
            "name": "AlreadyInitialized",
            "type": "error"
        },
        {
            "inputs": [],
            "name": "InvalidAddress",
            "type": "error"
        },
        {
            "inputs": [],
            "name": "InvalidCodeHash",
            "type": "error"
        },
        {
            "inputs": [],
            "name": "InvalidImplementation",
            "type": "error"
        },
        {
            "inputs": [],
            "name": "InvalidOwner",
            "type": "error"
        },
        {
            "inputs": [],
            "name": "NotApprovedByGateway",
            "type": "error"
        },
        {
            "inputs": [],
            "name": "NotOwner",
            "type": "error"
        },
        {
            "inputs": [],
            "name": "NotProxy",
            "type": "error"
        },
        {
            "inputs": [],
            "name": "SetupFailed",
            "type": "error"
        },
        {
            "anonymous": false,
            "inputs": [
                {
                    "indexed": true,
                    "internalType": "address",
                    "name": "owner",
                    "type": "address"
                },
                {
                    "indexed": true,
                    "internalType": "address",
                    "name": "approved",
                    "type": "address"
                },
                {
                    "indexed": true,
                    "internalType": "uint256",
                    "name": "tokenId",
                    "type": "uint256"
                }
            ],
            "name": "Approval",
            "type": "event"
        },
        {
            "anonymous": false,
            "inputs": [
                {
                    "indexed": true,
                    "internalType": "address",
                    "name": "owner",
                    "type": "address"
                },
                {
                    "indexed": true,
                    "internalType": "address",
                    "name": "operator",
                    "type": "address"
                },
                {
                    "indexed": false,
                    "internalType": "bool",
                    "name": "approved",
                    "type": "bool"
                }
            ],
            "name": "ApprovalForAll",
            "type": "event"
        },
        {
            "anonymous": false,
            "inputs": [
                {
                    "indexed": true,
                    "internalType": "address",
                    "name": "newOwner",
                    "type": "address"
                }
            ],
            "name": "OwnershipTransferred",
            "type": "event"
        },
        {
            "anonymous": false,
            "inputs": [
                {
                    "indexed": true,
                    "internalType": "address",
                    "name": "from",
                    "type": "address"
                },
                {
                    "indexed": true,
                    "internalType": "address",
                    "name": "to",
                    "type": "address"
                },
                {
                    "indexed": true,
                    "internalType": "uint256",
                    "name": "tokenId",
                    "type": "uint256"
                }
            ],
            "name": "Transfer",
            "type": "event"
        },
        {
            "anonymous": false,
            "inputs": [
                {
                    "indexed": true,
                    "internalType": "address",
                    "name": "newImplementation",
                    "type": "address"
                }
            ],
            "name": "Upgraded",
            "type": "event"
        },
        {
            "inputs": [
                {
                    "internalType": "address",
                    "name": "to",
                    "type": "address"
                },
                {
                    "internalType": "uint256",
                    "name": "tokenId",
                    "type": "uint256"
                }
            ],
            "name": "approve",
            "outputs": [],
            "stateMutability": "nonpayable",
            "type": "function"
        },
        {
            "inputs": [
                {
                    "internalType": "address",
                    "name": "owner",
                    "type": "address"
                }
            ],
            "name": "balanceOf",
            "outputs": [
                {
                    "internalType": "uint256",
                    "name": "",
                    "type": "uint256"
                }
            ],
            "stateMutability": "view",
            "type": "function"
        },
        {
            "inputs": [],
            "name": "chainName",
            "outputs": [
                {
                    "internalType": "string",
                    "name": "",
                    "type": "string"
                }
            ],
            "stateMutability": "view",
            "type": "function"
        },
        {
            "inputs": [],
            "name": "contractId",
            "outputs": [
                {
                    "internalType": "bytes32",
                    "name": "",
                    "type": "bytes32"
                }
            ],
            "stateMutability": "pure",
            "type": "function"
        },
        {
            "inputs": [
                {
                    "internalType": "bytes32",
                    "name": "commandId",
                    "type": "bytes32"
                },
                {
                    "internalType": "string",
                    "name": "sourceChain",
                    "type": "string"
                },
                {
                    "internalType": "string",
                    "name": "sourceAddress",
                    "type": "string"
                },
                {
                    "internalType": "bytes",
                    "name": "payload",
                    "type": "bytes"
                }
            ],
            "name": "execute",
            "outputs": [],
            "stateMutability": "nonpayable",
            "type": "function"
        },
        {
            "inputs": [
                {
                    "internalType": "bytes32",
                    "name": "commandId",
                    "type": "bytes32"
                },
                {
                    "internalType": "string",
                    "name": "sourceChain",
                    "type": "string"
                },
                {
                    "internalType": "string",
                    "name": "sourceAddress",
                    "type": "string"
                },
                {
                    "internalType": "bytes",
                    "name": "payload",
                    "type": "bytes"
                },
                {
                    "internalType": "string",
                    "name": "tokenSymbol",
                    "type": "string"
                },
                {
                    "internalType": "uint256",
                    "name": "amount",
                    "type": "uint256"
                }
            ],
            "name": "executeWithToken",
            "outputs": [],
            "stateMutability": "nonpayable",
            "type": "function"
        },
        {
            "inputs": [],
            "name": "gasReceiver",
            "outputs": [
                {
                    "internalType": "contract IAxelarGasService",
                    "name": "",
                    "type": "address"
                }
            ],
            "stateMutability": "view",
            "type": "function"
        },
        {
            "inputs": [],
            "name": "gateway",
            "outputs": [
                {
                    "internalType": "contract IAxelarGateway",
                    "name": "",
                    "type": "address"
                }
            ],
            "stateMutability": "view",
            "type": "function"
        },
        {
            "inputs": [
                {
                    "internalType": "uint256",
                    "name": "tokenId",
                    "type": "uint256"
                }
            ],
            "name": "getApproved",
            "outputs": [
                {
                    "internalType": "address",
                    "name": "",
                    "type": "address"
                }
            ],
            "stateMutability": "view",
            "type": "function"
        },
        {
            "inputs": [],
            "name": "implementation",
            "outputs": [
                {
                    "internalType": "address",
                    "name": "implementation_",
                    "type": "address"
                }
            ],
            "stateMutability": "view",
            "type": "function"
        },
        {
            "inputs": [
                {
                    "internalType": "address",
                    "name": "owner",
                    "type": "address"
                },
                {
                    "internalType": "address",
                    "name": "operator",
                    "type": "address"
                }
            ],
            "name": "isApprovedForAll",
            "outputs": [
                {
                    "internalType": "bool",
                    "name": "",
                    "type": "bool"
                }
            ],
            "stateMutability": "view",
            "type": "function"
        },
        {
            "inputs": [],
            "name": "name",
            "outputs": [
                {
                    "internalType": "string",
                    "name": "",
                    "type": "string"
                }
            ],
            "stateMutability": "view",
            "type": "function"
        },
        {
            "inputs": [
                {
                    "internalType": "uint256",
                    "name": "",
                    "type": "uint256"
                }
            ],
            "name": "original",
            "outputs": [
                {
                    "internalType": "bytes",
                    "name": "",
                    "type": "bytes"
                }
            ],
            "stateMutability": "view",
            "type": "function"
        },
        {
            "inputs": [],
            "name": "owner",
            "outputs": [
                {
                    "internalType": "address",
                    "name": "owner_",
                    "type": "address"
                }
            ],
            "stateMutability": "view",
            "type": "function"
        },
        {
            "inputs": [
                {
                    "internalType": "uint256",
                    "name": "tokenId",
                    "type": "uint256"
                }
            ],
            "name": "ownerOf",
            "outputs": [
                {
                    "internalType": "address",
                    "name": "",
                    "type": "address"
                }
            ],
            "stateMutability": "view",
            "type": "function"
        },
        {
            "inputs": [
                {
                    "internalType": "address",
                    "name": "from",
                    "type": "address"
                },
                {
                    "internalType": "address",
                    "name": "to",
                    "type": "address"
                },
                {
                    "internalType": "uint256",
                    "name": "tokenId",
                    "type": "uint256"
                }
            ],
            "name": "safeTransferFrom",
            "outputs": [],
            "stateMutability": "nonpayable",
            "type": "function"
        },
        {
            "inputs": [
                {
                    "internalType": "address",
                    "name": "from",
                    "type": "address"
                },
                {
                    "internalType": "address",
                    "name": "to",
                    "type": "address"
                },
                {
                    "internalType": "uint256",
                    "name": "tokenId",
                    "type": "uint256"
                },
                {
                    "internalType": "bytes",
                    "name": "data",
                    "type": "bytes"
                }
            ],
            "name": "safeTransferFrom",
            "outputs": [],
            "stateMutability": "nonpayable",
            "type": "function"
        },
        {
            "inputs": [
                {
                    "internalType": "address",
                    "name": "operator",
                    "type": "address"
                },
                {
                    "internalType": "uint256",
                    "name": "tokenId",
                    "type": "uint256"
                },
                {
                    "internalType": "string",
                    "name": "destinationChain",
                    "type": "string"
                },
                {
                    "internalType": "address",
                    "name": "destinationAddress",
                    "type": "address"
                }
            ],
            "name": "sendNFT",
            "outputs": [],
            "stateMutability": "payable",
            "type": "function"
        },
        {
            "inputs": [
                {
                    "internalType": "address",
                    "name": "operator",
                    "type": "address"
                },
                {
                    "internalType": "bool",
                    "name": "approved",
                    "type": "bool"
                }
            ],
            "name": "setApprovalForAll",
            "outputs": [],
            "stateMutability": "nonpayable",
            "type": "function"
        },
        {
            "inputs": [
                {
                    "internalType": "bytes",
                    "name": "data",
                    "type": "bytes"
                }
            ],
            "name": "setup",
            "outputs": [],
            "stateMutability": "nonpayable",
            "type": "function"
        },
        {
            "inputs": [
                {
                    "internalType": "bytes4",
                    "name": "interfaceId",
                    "type": "bytes4"
                }
            ],
            "name": "supportsInterface",
            "outputs": [
                {
                    "internalType": "bool",
                    "name": "",
                    "type": "bool"
                }
            ],
            "stateMutability": "view",
            "type": "function"
        },
        {
            "inputs": [],
            "name": "symbol",
            "outputs": [
                {
                    "internalType": "string",
                    "name": "",
                    "type": "string"
                }
            ],
            "stateMutability": "view",
            "type": "function"
        },
        {
            "inputs": [
                {
                    "internalType": "uint256",
                    "name": "tokenId",
                    "type": "uint256"
                }
            ],
            "name": "tokenURI",
            "outputs": [
                {
                    "internalType": "string",
                    "name": "",
                    "type": "string"
                }
            ],
            "stateMutability": "view",
            "type": "function"
        },
        {
            "inputs": [
                {
                    "internalType": "address",
                    "name": "from",
                    "type": "address"
                },
                {
                    "internalType": "address",
                    "name": "to",
                    "type": "address"
                },
                {
                    "internalType": "uint256",
                    "name": "tokenId",
                    "type": "uint256"
                }
            ],
            "name": "transferFrom",
            "outputs": [],
            "stateMutability": "nonpayable",
            "type": "function"
        },
        {
            "inputs": [
                {
                    "internalType": "address",
                    "name": "newOwner",
                    "type": "address"
                }
            ],
            "name": "transferOwnership",
            "outputs": [],
            "stateMutability": "nonpayable",
            "type": "function"
        },
        {
            "inputs": [
                {
                    "internalType": "address",
                    "name": "newImplementation",
                    "type": "address"
                },
                {
                    "internalType": "bytes32",
                    "name": "newImplementationCodeHash",
                    "type": "bytes32"
                },
                {
                    "internalType": "bytes",
                    "name": "params",
                    "type": "bytes"
                }
            ],
            "name": "upgrade",
            "outputs": [],
            "stateMutability": "nonpayable",
            "type": "function"
        }
    ],
    "bytecode": "0x60c06040523480156200001157600080fd5b50604051620038a5380380620038a58339810160408190526200003491620001a6565b604080518082018252601181527020bc32b630b91027232a102634b735b2b960791b60208083019182528351808501909452600384526210539360ea1b908401528151859391620000899160009190620000e3565b5080516200009f906001906020840190620000e3565b5050506001600160a01b038116620000ca5760405163e6c4247b60e01b815260040160405180910390fd5b6001600160a01b039081166080521660a052506200021b565b828054620000f190620001de565b90600052602060002090601f01602090048101928262000115576000855562000160565b82601f106200013057805160ff191683800117855562000160565b8280016001018555821562000160579182015b828111156200016057825182559160200191906001019062000143565b506200016e92915062000172565b5090565b5b808211156200016e576000815560010162000173565b80516001600160a01b0381168114620001a157600080fd5b919050565b60008060408385031215620001ba57600080fd5b620001c58362000189565b9150620001d56020840162000189565b90509250929050565b600181811c90821680620001f357607f821691505b602082108114156200021557634e487b7160e01b600052602260045260246000fd5b50919050565b60805160a05161363a6200026b600039600081816103d4015281816119b30152611b8d0152600081816102690152818161086501528181610aa001528181611a4c0152611c26015261363a6000f3fe6080604052600436106101a15760003560e01c8063717eb03f116100e15780639ded06df1161008a578063b88d4fde11610064578063b88d4fde146104e5578063c87b56dd14610505578063e985e9c514610525578063f2fde38b1461056e57600080fd5b80639ded06df14610485578063a22cb465146104a5578063a3499c73146104c557600080fd5b80638da5cb5b116100bb5780638da5cb5b14610429578063933498761461045d57806395d89b411461047057600080fd5b8063717eb03f146103a257806380d14b4a146103c25780638291286c146103f657600080fd5b80631c93b03a1161014e578063491606581161012857806349160658146103005780635c60da1b146103205780636352211e1461035457806370a082311461037457600080fd5b80631c93b03a146102ab57806323b872dd146102c057806342842e0e146102e057600080fd5b8063095ea7b31161017f578063095ea7b314610235578063116191b6146102575780631a98b2e01461028b57600080fd5b806301ffc9a7146101a657806306fdde03146101db578063081812fc146101fd575b600080fd5b3480156101b257600080fd5b506101c66101c1366004612920565b61058e565b60405190151581526020015b60405180910390f35b3480156101e757600080fd5b506101f061062b565b6040516101d29190612995565b34801561020957600080fd5b5061021d6102183660046129a8565b6106bd565b6040516001600160a01b0390911681526020016101d2565b34801561024157600080fd5b506102556102503660046129d6565b6106e4565b005b34801561026357600080fd5b5061021d7f000000000000000000000000000000000000000000000000000000000000000081565b34801561029757600080fd5b506102556102a6366004612a4b565b61081b565b3480156102b757600080fd5b506101f0610926565b3480156102cc57600080fd5b506102556102db366004612b25565b6109b4565b3480156102ec57600080fd5b506102556102fb366004612b25565b610a3b565b34801561030c57600080fd5b5061025561031b366004612b66565b610a56565b34801561032c57600080fd5b507f360894a13ba1a3210667c828492db98dca3e2076cc3735a920a3ca505d382bbc5461021d565b34801561036057600080fd5b5061021d61036f3660046129a8565b610b66565b34801561038057600080fd5b5061039461038f366004612c0a565b610bcb565b6040519081526020016101d2565b3480156103ae57600080fd5b506101f06103bd3660046129a8565b610c65565b3480156103ce57600080fd5b5061021d7f000000000000000000000000000000000000000000000000000000000000000081565b34801561040257600080fd5b507f87632f52429ecc2edb99c7298683ff237e23550232db99134583b48f4df5b3d2610394565b34801561043557600080fd5b507f02016836a56b71f0d02689e69e326f4f4c1b9057164ef592671cf0d37c8040c05461021d565b61025561046b366004612cf4565b610c7e565b34801561047c57600080fd5b506101f0610d87565b34801561049157600080fd5b506102556104a0366004612d60565b610d96565b3480156104b157600080fd5b506102556104c0366004612db0565b610e0f565b3480156104d157600080fd5b506102556104e0366004612de9565b610e1a565b3480156104f157600080fd5b50610255610500366004612e45565b61111e565b34801561051157600080fd5b506101f06105203660046129a8565b6111a6565b34801561053157600080fd5b506101c6610540366004612ec5565b6001600160a01b03918216600090815260056020908152604080832093909416825291909152205460ff1690565b34801561057a57600080fd5b50610255610589366004612c0a565b6112b7565b60006001600160e01b031982167f80ac58cd0000000000000000000000000000000000000000000000000000000014806105f157506001600160e01b031982167f5b5e139f00000000000000000000000000000000000000000000000000000000145b8061062557507f01ffc9a7000000000000000000000000000000000000000000000000000000006001600160e01b03198316145b92915050565b60606000805461063a90612ef3565b80601f016020809104026020016040519081016040528092919081815260200182805461066690612ef3565b80156106b35780601f10610688576101008083540402835291602001916106b3565b820191906000526020600020905b81548152906001019060200180831161069657829003601f168201915b5050505050905090565b60006106c88261139f565b506000908152600460205260409020546001600160a01b031690565b60006106ef82610b66565b9050806001600160a01b0316836001600160a01b0316141561077e5760405162461bcd60e51b815260206004820152602160248201527f4552433732313a20617070726f76616c20746f2063757272656e74206f776e6560448201527f720000000000000000000000000000000000000000000000000000000000000060648201526084015b60405180910390fd5b336001600160a01b038216148061079a575061079a8133610540565b61080c5760405162461bcd60e51b815260206004820152603e60248201527f4552433732313a20617070726f76652063616c6c6572206973206e6f7420746f60448201527f6b656e206f776e6572206e6f7220617070726f76656420666f7220616c6c00006064820152608401610775565b6108168383611406565b505050565b6000858560405161082d929190612f2e565b6040519081900381207f1876eed900000000000000000000000000000000000000000000000000000000825291506001600160a01b037f00000000000000000000000000000000000000000000000000000000000000001690631876eed9906108aa908e908e908e908e908e9089908d908d908d90600401612f67565b602060405180830381600087803b1580156108c457600080fd5b505af11580156108d8573d6000803e3d6000fd5b505050506040513d601f19601f820116820180604052508101906108fc9190612fc6565b61091957604051631403112d60e21b815260040160405180910390fd5b5050505050505050505050565b6008805461093390612ef3565b80601f016020809104026020016040519081016040528092919081815260200182805461095f90612ef3565b80156109ac5780601f10610981576101008083540402835291602001916109ac565b820191906000526020600020905b81548152906001019060200180831161098f57829003601f168201915b505050505081565b6109be3382611481565b610a305760405162461bcd60e51b815260206004820152602e60248201527f4552433732313a2063616c6c6572206973206e6f7420746f6b656e206f776e6560448201527f72206e6f7220617070726f7665640000000000000000000000000000000000006064820152608401610775565b6108168383836114ff565b6108168383836040518060200160405280600081525061111e565b60008282604051610a68929190612f2e565b6040519081900381207f5f6970c300000000000000000000000000000000000000000000000000000000825291506001600160a01b037f00000000000000000000000000000000000000000000000000000000000000001690635f6970c390610adf908b908b908b908b908b908990600401612fe3565b602060405180830381600087803b158015610af957600080fd5b505af1158015610b0d573d6000803e3d6000fd5b505050506040513d601f19601f82011682018060405250810190610b319190612fc6565b610b4e57604051631403112d60e21b815260040160405180910390fd5b610b5c8787878787876116d9565b5050505050505050565b6000818152600260205260408120546001600160a01b0316806106255760405162461bcd60e51b815260206004820152601860248201527f4552433732313a20696e76616c696420746f6b656e20494400000000000000006044820152606401610775565b60006001600160a01b038216610c495760405162461bcd60e51b815260206004820152602960248201527f4552433732313a2061646472657373207a65726f206973206e6f74206120766160448201527f6c6964206f776e657200000000000000000000000000000000000000000000006064820152608401610775565b506001600160a01b031660009081526003602052604090205490565b6007602052600090815260409020805461093390612ef3565b6001600160a01b038416301415610cff5733610c9984610b66565b6001600160a01b031614610cef5760405162461bcd60e51b815260206004820152600e60248201527f4e4f545f594f55525f544f4b454e0000000000000000000000000000000000006044820152606401610775565b610cfa8383836118b5565b610d81565b6001600160a01b0384166323b872dd336040516001600160e01b031960e084901b1681526001600160a01b03909116600482015230602482015260448101869052606401600060405180830381600087803b158015610d5d57600080fd5b505af1158015610d71573d6000803e3d6000fd5b50505050610d8184848484611ab6565b50505050565b60606001805461063a90612ef3565b6000610dc07f360894a13ba1a3210667c828492db98dca3e2076cc3735a920a3ca505d382bbc5490565b6001600160a01b03161415610e01576040517fbf10dd3a00000000000000000000000000000000000000000000000000000000815260040160405180910390fd5b610e0b8282611c90565b5050565b610e0b338383611cf9565b33610e437f02016836a56b71f0d02689e69e326f4f4c1b9057164ef592671cf0d37c8040c05490565b6001600160a01b031614610e6a576040516330cd747160e01b815260040160405180910390fd5b306001600160a01b0316638291286c6040518163ffffffff1660e01b815260040160206040518083038186803b158015610ea357600080fd5b505afa158015610eb7573d6000803e3d6000fd5b505050506040513d601f19601f82011682018060405250810190610edb9190613024565b846001600160a01b0316638291286c6040518163ffffffff1660e01b815260040160206040518083038186803b158015610f1457600080fd5b505afa158015610f28573d6000803e3d6000fd5b505050506040513d601f19601f82011682018060405250810190610f4c9190613024565b14610f83576040517f68155f9a00000000000000000000000000000000000000000000000000000000815260040160405180910390fd5b836001600160a01b03163f8314610fc6576040517f8f84fb2400000000000000000000000000000000000000000000000000000000815260040160405180910390fd5b80156110c3576000846001600160a01b0316639ded06df60e01b8484604051602401610ff392919061303d565b60408051601f198184030181529181526020820180517bffffffffffffffffffffffffffffffffffffffffffffffffffffffff166001600160e01b03199094169390931790925290516110469190613051565b600060405180830381855af49150503d8060008114611081576040519150601f19603f3d011682016040523d82523d6000602084013e611086565b606091505b50509050806110c1576040517f97905dfb00000000000000000000000000000000000000000000000000000000815260040160405180910390fd5b505b6040516001600160a01b038516907fbc7cd75a20ee27fd9adebab32041f755214dbc6bffa90cc0225b39da2e5c2d3b90600090a25050507f360894a13ba1a3210667c828492db98dca3e2076cc3735a920a3ca505d382bbc55565b6111283383611481565b61119a5760405162461bcd60e51b815260206004820152602e60248201527f4552433732313a2063616c6c6572206973206e6f7420746f6b656e206f776e6560448201527f72206e6f7220617070726f7665640000000000000000000000000000000000006064820152608401610775565b610d8184848484611dc8565b60606111b18261139f565b600082815260066020526040812080546111ca90612ef3565b80601f01602080910402602001604051908101604052809291908181526020018280546111f690612ef3565b80156112435780601f1061121857610100808354040283529160200191611243565b820191906000526020600020905b81548152906001019060200180831161122657829003601f168201915b50505050509050600061126160408051602081019091526000815290565b9050805160001415611274575092915050565b8151156112a657808260405160200161128e92919061306d565b60405160208183030381529060405292505050919050565b6112af84611e46565b949350505050565b336112e07f02016836a56b71f0d02689e69e326f4f4c1b9057164ef592671cf0d37c8040c05490565b6001600160a01b031614611307576040516330cd747160e01b815260040160405180910390fd5b6001600160a01b038116611347576040517f49e27cff00000000000000000000000000000000000000000000000000000000815260040160405180910390fd5b6040516001600160a01b038216907f04dba622d284ed0014ee4b9a6a68386be1a4c08a4913ae272de89199cc68616390600090a27f02016836a56b71f0d02689e69e326f4f4c1b9057164ef592671cf0d37c8040c055565b6000818152600260205260409020546001600160a01b03166114035760405162461bcd60e51b815260206004820152601860248201527f4552433732313a20696e76616c696420746f6b656e20494400000000000000006044820152606401610775565b50565b6000818152600460205260409020805473ffffffffffffffffffffffffffffffffffffffff19166001600160a01b038416908117909155819061144882610b66565b6001600160a01b03167f8c5be1e5ebec7d5bd14f71427d1e84f3dd0314c0f7b2291e5b200ac8c7c3b92560405160405180910390a45050565b60008061148d83610b66565b9050806001600160a01b0316846001600160a01b031614806114d457506001600160a01b0380821660009081526005602090815260408083209388168352929052205460ff165b806112af5750836001600160a01b03166114ed846106bd565b6001600160a01b031614949350505050565b826001600160a01b031661151282610b66565b6001600160a01b03161461158e5760405162461bcd60e51b815260206004820152602560248201527f4552433732313a207472616e736665722066726f6d20696e636f72726563742060448201527f6f776e65720000000000000000000000000000000000000000000000000000006064820152608401610775565b6001600160a01b0382166116095760405162461bcd60e51b8152602060048201526024808201527f4552433732313a207472616e7366657220746f20746865207a65726f2061646460448201527f72657373000000000000000000000000000000000000000000000000000000006064820152608401610775565b611614600082611406565b6001600160a01b038316600090815260036020526040812080546001929061163d9084906130b2565b90915550506001600160a01b038216600090815260036020526040812080546001929061166b9084906130c9565b9091555050600081815260026020526040808220805473ffffffffffffffffffffffffffffffffffffffff19166001600160a01b0386811691821790925591518493918716917fddf252ad1be2c89b69c2b068fc378daa952ba7f163c4a11628f55a4df523b3ef91a4505050565b306001600160a01b031661172285858080601f016020809104026020016040519081016040528093929190818152602001838380828437600092019190915250611eba92505050565b6001600160a01b0316146117785760405162461bcd60e51b815260206004820152600c60248201527f4e4f545f415f4c494e4b455200000000000000000000000000000000000000006044820152606401610775565b60008080808061178a868801886130e1565b9450945094509450945060086040516117a39190613178565b60405180910390208580519060200120141561183f576040517f23b872dd0000000000000000000000000000000000000000000000000000000081523060048201526001600160a01b038381166024830152604482018590528516906323b872dd90606401600060405180830381600087803b15801561182257600080fd5b505af1158015611836573d6000803e3d6000fd5b50505050610919565b60008585858460405160200161185894939291906131ea565b60408051601f1981840301815291815281516020808401918220600081815260079092529290208351939450919261189192919061283b565b5061189c8482611fb9565b6118a68184611fd3565b50505050505050505050505050565b6118be8361207c565b60008381526007602052604081208054829182918291906118de90612ef3565b80601f016020809104026020016040519081016040528092919081815260200182805461190a90612ef3565b80156119575780601f1061192c57610100808354040283529160200191611957565b820191906000526020600020905b81548152906001019060200180831161193a57829003601f168201915b505050505080602001905181019061196f9190613274565b9350935093509350600084848488856040516020016119929594939291906132e9565b60408051601f19818403018152919052905060006119af306120bc565b90507f00000000000000000000000000000000000000000000000000000000000000006001600160a01b0316630c93e3bb34308b8587336040518763ffffffff1660e01b8152600401611a06959493929190613338565b6000604051808303818588803b158015611a1f57600080fd5b505af1158015611a33573d6000803e3d6000fd5b5050604051631c92115f60e01b81526001600160a01b037f0000000000000000000000000000000000000000000000000000000000000000169350631c92115f9250611a8891508b9085908790600401613397565b600060405180830381600087803b158015611aa257600080fd5b505af11580156118a6573d6000803e3d6000fd5b6040517fc87b56dd000000000000000000000000000000000000000000000000000000008152600481018490526000906001600160a01b0386169063c87b56dd9060240160006040518083038186803b158015611b1257600080fd5b505afa158015611b26573d6000803e3d6000fd5b505050506040513d6000823e601f3d908101601f19168201604052611b4e91908101906133da565b90506000600886868585604051602001611b6c95949392919061340f565b60408051601f1981840301815291905290506000611b89306120bc565b90507f00000000000000000000000000000000000000000000000000000000000000006001600160a01b0316630c93e3bb3430888587336040518763ffffffff1660e01b8152600401611be0959493929190613338565b6000604051808303818588803b158015611bf957600080fd5b505af1158015611c0d573d6000803e3d6000fd5b5050604051631c92115f60e01b81526001600160a01b037f0000000000000000000000000000000000000000000000000000000000000000169350631c92115f9250611c629150889085908790600401613397565b600060405180830381600087803b158015611c7c57600080fd5b505af1158015610919573d6000803e3d6000fd5b6000611c9e828401846134cf565b905060088054611cad90612ef3565b159050611ce6576040517f0dc149f000000000000000000000000000000000000000000000000000000000815260040160405180910390fd5b8051610d8190600890602084019061283b565b816001600160a01b0316836001600160a01b03161415611d5b5760405162461bcd60e51b815260206004820152601960248201527f4552433732313a20617070726f766520746f2063616c6c6572000000000000006044820152606401610775565b6001600160a01b03838116600081815260056020908152604080832094871680845294825291829020805460ff191686151590811790915591519182527f17307eab39ab6107e8899845ad3d59bd9653f200f220920489ca2b5937696c31910160405180910390a3505050565b611dd38484846114ff565b611ddf84848484612370565b610d815760405162461bcd60e51b815260206004820152603260248201527f4552433732313a207472616e7366657220746f206e6f6e20455243373231526560448201527131b2b4bb32b91034b6b83632b6b2b73a32b960711b6064820152608401610775565b6060611e518261139f565b6000611e6860408051602081019091526000815290565b90506000815111611e885760405180602001604052806000815250611eb3565b80611e92846124c8565b604051602001611ea392919061306d565b6040516020818303038152906040525b9392505050565b80516000908290602a14611ed15750600092915050565b60008060025b602a811015611faf57838181518110611ef257611ef2613504565b016020015160f81c915060618210801590611f11575060668260ff1611155b15611f2857611f2160578361351a565b9150611f84565b60418260ff1610158015611f40575060468260ff1611155b15611f5057611f2160378361351a565b60308260ff1610158015611f68575060398260ff1611155b15611f7857611f2160308361351a565b50600095945050505050565b6002611f918260296130b2565b60ff8416911b1b929092179180611fa78161353d565b915050611ed7565b5090949350505050565b610e0b8282604051806020016040528060008152506125c6565b6000828152600260205260409020546001600160a01b031661205d5760405162461bcd60e51b815260206004820152602e60248201527f45524337323155524953746f726167653a2055524920736574206f66206e6f6e60448201527f6578697374656e7420746f6b656e0000000000000000000000000000000000006064820152608401610775565b600082815260066020908152604090912082516108169284019061283b565b61208581612644565b6000818152600660205260409020805461209e90612ef3565b159050611403576000818152600660205260408120611403916128bf565b604051606082811b6bffffffffffffffffffffffff191660208301529060009060340160408051601f19818403018152828201909152601082527f30313233343536373839616263646566000000000000000000000000000000006020830152805190925060009061212f906002613558565b61213a9060026130c9565b67ffffffffffffffff81111561215257612152612c27565b6040519080825280601f01601f19166020018201604052801561217c576020820181803683370190505b509050600360fc1b8160008151811061219757612197613504565b60200101906001600160f81b031916908160001a9053507f7800000000000000000000000000000000000000000000000000000000000000816001815181106121e2576121e2613504565b60200101906001600160f81b031916908160001a90535060005b83518110156123675782600485838151811061221a5761221a613504565b016020015182517fff0000000000000000000000000000000000000000000000000000000000000090911690911c60f81c90811061225a5761225a613504565b01602001517fff00000000000000000000000000000000000000000000000000000000000000168261228d836002613558565b6122989060026130c9565b815181106122a8576122a8613504565b60200101906001600160f81b031916908160001a905350828482815181106122d2576122d2613504565b602091010151815160f89190911c600f169081106122f2576122f2613504565b01602001517fff000000000000000000000000000000000000000000000000000000000000001682612325836002613558565b6123309060036130c9565b8151811061234057612340613504565b60200101906001600160f81b031916908160001a9053506123608161353d565b90506121fc565b50949350505050565b60006001600160a01b0384163b156124bd57604051630a85bd0160e11b81526001600160a01b0385169063150b7a02906123b4903390899088908890600401613577565b602060405180830381600087803b1580156123ce57600080fd5b505af19250505080156123fe575060408051601f3d908101601f191682019092526123fb918101906135a9565b60015b6124a3573d80801561242c576040519150601f19603f3d011682016040523d82523d6000602084013e612431565b606091505b50805161249b5760405162461bcd60e51b815260206004820152603260248201527f4552433732313a207472616e7366657220746f206e6f6e20455243373231526560448201527131b2b4bb32b91034b6b83632b6b2b73a32b960711b6064820152608401610775565b805181602001fd5b6001600160e01b031916630a85bd0160e11b1490506112af565b506001949350505050565b6060816124ec5750506040805180820190915260018152600360fc1b602082015290565b8160005b811561251657806125008161353d565b915061250f9050600a836135dc565b91506124f0565b60008167ffffffffffffffff81111561253157612531612c27565b6040519080825280601f01601f19166020018201604052801561255b576020820181803683370190505b5090505b84156112af576125706001836130b2565b915061257d600a866135f0565b6125889060306130c9565b60f81b81838151811061259d5761259d613504565b60200101906001600160f81b031916908160001a9053506125bf600a866135dc565b945061255f565b6125d083836126ec565b6125dd6000848484612370565b6108165760405162461bcd60e51b815260206004820152603260248201527f4552433732313a207472616e7366657220746f206e6f6e20455243373231526560448201527131b2b4bb32b91034b6b83632b6b2b73a32b960711b6064820152608401610775565b600061264f82610b66565b905061265c600083611406565b6001600160a01b03811660009081526003602052604081208054600192906126859084906130b2565b9091555050600082815260026020526040808220805473ffffffffffffffffffffffffffffffffffffffff19169055518391906001600160a01b038416907fddf252ad1be2c89b69c2b068fc378daa952ba7f163c4a11628f55a4df523b3ef908390a45050565b6001600160a01b0382166127425760405162461bcd60e51b815260206004820181905260248201527f4552433732313a206d696e7420746f20746865207a65726f20616464726573736044820152606401610775565b6000818152600260205260409020546001600160a01b0316156127a75760405162461bcd60e51b815260206004820152601c60248201527f4552433732313a20746f6b656e20616c7265616479206d696e746564000000006044820152606401610775565b6001600160a01b03821660009081526003602052604081208054600192906127d09084906130c9565b9091555050600081815260026020526040808220805473ffffffffffffffffffffffffffffffffffffffff19166001600160a01b03861690811790915590518392907fddf252ad1be2c89b69c2b068fc378daa952ba7f163c4a11628f55a4df523b3ef908290a45050565b82805461284790612ef3565b90600052602060002090601f01602090048101928261286957600085556128af565b82601f1061288257805160ff19168380011785556128af565b828001600101855582156128af579182015b828111156128af578251825591602001919060010190612894565b506128bb9291506128f5565b5090565b5080546128cb90612ef3565b6000825580601f106128db575050565b601f01602090049060005260206000209081019061140391905b5b808211156128bb57600081556001016128f6565b6001600160e01b03198116811461140357600080fd5b60006020828403121561293257600080fd5b8135611eb38161290a565b60005b83811015612958578181015183820152602001612940565b83811115610d815750506000910152565b6000815180845261298181602086016020860161293d565b601f01601f19169290920160200192915050565b602081526000611eb36020830184612969565b6000602082840312156129ba57600080fd5b5035919050565b6001600160a01b038116811461140357600080fd5b600080604083850312156129e957600080fd5b82356129f4816129c1565b946020939093013593505050565b60008083601f840112612a1457600080fd5b50813567ffffffffffffffff811115612a2c57600080fd5b602083019150836020828501011115612a4457600080fd5b9250929050565b60008060008060008060008060008060c08b8d031215612a6a57600080fd5b8a35995060208b013567ffffffffffffffff80821115612a8957600080fd5b612a958e838f01612a02565b909b50995060408d0135915080821115612aae57600080fd5b612aba8e838f01612a02565b909950975060608d0135915080821115612ad357600080fd5b612adf8e838f01612a02565b909750955060808d0135915080821115612af857600080fd5b50612b058d828e01612a02565b9150809450508092505060a08b013590509295989b9194979a5092959850565b600080600060608486031215612b3a57600080fd5b8335612b45816129c1565b92506020840135612b55816129c1565b929592945050506040919091013590565b60008060008060008060006080888a031215612b8157600080fd5b87359650602088013567ffffffffffffffff80821115612ba057600080fd5b612bac8b838c01612a02565b909850965060408a0135915080821115612bc557600080fd5b612bd18b838c01612a02565b909650945060608a0135915080821115612bea57600080fd5b50612bf78a828b01612a02565b989b979a50959850939692959293505050565b600060208284031215612c1c57600080fd5b8135611eb3816129c1565b634e487b7160e01b600052604160045260246000fd5b604051601f8201601f1916810167ffffffffffffffff81118282101715612c6657612c66612c27565b604052919050565b600067ffffffffffffffff821115612c8857612c88612c27565b50601f01601f191660200190565b6000612ca9612ca484612c6e565b612c3d565b9050828152838383011115612cbd57600080fd5b828260208301376000602084830101529392505050565b600082601f830112612ce557600080fd5b611eb383833560208501612c96565b60008060008060808587031215612d0a57600080fd5b8435612d15816129c1565b935060208501359250604085013567ffffffffffffffff811115612d3857600080fd5b612d4487828801612cd4565b9250506060850135612d55816129c1565b939692955090935050565b60008060208385031215612d7357600080fd5b823567ffffffffffffffff811115612d8a57600080fd5b612d9685828601612a02565b90969095509350505050565b801515811461140357600080fd5b60008060408385031215612dc357600080fd5b8235612dce816129c1565b91506020830135612dde81612da2565b809150509250929050565b60008060008060608587031215612dff57600080fd5b8435612e0a816129c1565b935060208501359250604085013567ffffffffffffffff811115612e2d57600080fd5b612e3987828801612a02565b95989497509550505050565b60008060008060808587031215612e5b57600080fd5b8435612e66816129c1565b93506020850135612e76816129c1565b925060408501359150606085013567ffffffffffffffff811115612e9957600080fd5b8501601f81018713612eaa57600080fd5b612eb987823560208401612c96565b91505092959194509250565b60008060408385031215612ed857600080fd5b8235612ee3816129c1565b91506020830135612dde816129c1565b600181811c90821680612f0757607f821691505b60208210811415612f2857634e487b7160e01b600052602260045260246000fd5b50919050565b8183823760009101908152919050565b81835281816020850137506000828201602090810191909152601f909101601f19169091010190565b89815260c060208201526000612f8160c083018a8c612f3e565b8281036040840152612f9481898b612f3e565b90508660608401528281036080840152612faf818688612f3e565b9150508260a08301529a9950505050505050505050565b600060208284031215612fd857600080fd5b8151611eb381612da2565b868152608060208201526000612ffd608083018789612f3e565b8281036040840152613010818688612f3e565b915050826060830152979650505050505050565b60006020828403121561303657600080fd5b5051919050565b6020815260006112af602083018486612f3e565b6000825161306381846020870161293d565b9190910192915050565b6000835161307f81846020880161293d565b83519083019061309381836020880161293d565b01949350505050565b634e487b7160e01b600052601160045260246000fd5b6000828210156130c4576130c461309c565b500390565b600082198211156130dc576130dc61309c565b500190565b600080600080600060a086880312156130f957600080fd5b853567ffffffffffffffff8082111561311157600080fd5b61311d89838a01612cd4565b96506020880135915061312f826129c1565b90945060408701359350606087013590613148826129c1565b9092506080870135908082111561315e57600080fd5b5061316b88828901612cd4565b9150509295509295909350565b600080835461318681612ef3565b6001828116801561319e57600181146131af576131de565b60ff198416875282870194506131de565b8760005260208060002060005b858110156131d55781548a8201529084019082016131bc565b50505082870194505b50929695505050505050565b6080815260006131fd6080830187612969565b6001600160a01b038616602084015284604084015282810360608401526132248185612969565b979650505050505050565b600082601f83011261324057600080fd5b815161324e612ca482612c6e565b81815284602083860101111561326357600080fd5b6112af82602083016020870161293d565b6000806000806080858703121561328a57600080fd5b845167ffffffffffffffff808211156132a257600080fd5b6132ae8883890161322f565b9550602087015191506132c0826129c1565b604087015160608801519295509350808211156132dc57600080fd5b50612eb98782880161322f565b60a0815260006132fc60a0830188612969565b6001600160a01b0387811660208501526040840187905285166060840152828103608084015261332c8185612969565b98975050505050505050565b60006001600160a01b03808816835260a0602084015261335b60a0840188612969565b838103604085015261336d8188612969565b905083810360608501526133818187612969565b9250508084166080840152509695505050505050565b6060815260006133aa6060830186612969565b82810360208401526133bc8186612969565b905082810360408401526133d08185612969565b9695505050505050565b6000602082840312156133ec57600080fd5b815167ffffffffffffffff81111561340357600080fd5b6112af8482850161322f565b60a08152600080875461342181612ef3565b8060a086015260c0600180841660008114613443576001811461345757613488565b60ff1985168884015260e088019550613488565b8c60005260208060002060005b8681101561347f5781548b8201870152908401908201613464565b8a018501975050505b50505050506134a260208401886001600160a01b03169052565b8560408401526134bd60608401866001600160a01b03169052565b828103608084015261332c8185612969565b6000602082840312156134e157600080fd5b813567ffffffffffffffff8111156134f857600080fd5b6112af84828501612cd4565b634e487b7160e01b600052603260045260246000fd5b600060ff821660ff8416808210156135345761353461309c565b90039392505050565b60006000198214156135515761355161309c565b5060010190565b60008160001904831182151516156135725761357261309c565b500290565b60006001600160a01b038087168352808616602084015250836040830152608060608301526133d06080830184612969565b6000602082840312156135bb57600080fd5b8151611eb38161290a565b634e487b7160e01b600052601260045260246000fd5b6000826135eb576135eb6135c6565b500490565b6000826135ff576135ff6135c6565b50069056fea2646970667358221220dd59b80cf12214e934951109be2c818610e6db6a5e4fed72914d2c56eae5960e64736f6c63430008090033",
    "linkReferences": {},
    "deployedLinkReferences": {}
}