{
    "_format": "hh-sol-artifact-1",
    "contractName": "Sotm721",
    "sourceName": "contracts/ERC721demo.sol",
    "abi": [
        {
            "inputs": [
                {
                    "internalType": "string",
                    "name": "name_",
                    "type": "string"
                },
                {
                    "internalType": "string",
                    "name": "symbol_",
                    "type": "string"
                }
            ],
            "stateMutability": "nonpayable",
            "type": "constructor"
        },
        {
            "anonymous": false,
            "inputs": [
                {
                    "indexed": true,
                    "internalType": "address",
                    "name": "owner",
                    "type": "address"
                },
                {
                    "indexed": true,
                    "internalType": "address",
                    "name": "approved",
                    "type": "address"
                },
                {
                    "indexed": true,
                    "internalType": "uint256",
                    "name": "tokenId",
                    "type": "uint256"
                }
            ],
            "name": "Approval",
            "type": "event"
        },
        {
            "anonymous": false,
            "inputs": [
                {
                    "indexed": true,
                    "internalType": "address",
                    "name": "owner",
                    "type": "address"
                },
                {
                    "indexed": true,
                    "internalType": "address",
                    "name": "operator",
                    "type": "address"
                },
                {
                    "indexed": false,
                    "internalType": "bool",
                    "name": "approved",
                    "type": "bool"
                }
            ],
            "name": "ApprovalForAll",
            "type": "event"
        },
        {
            "anonymous": false,
            "inputs": [
                {
                    "indexed": true,
                    "internalType": "address",
                    "name": "from",
                    "type": "address"
                },
                {
                    "indexed": true,
                    "internalType": "address",
                    "name": "to",
                    "type": "address"
                },
                {
                    "indexed": true,
                    "internalType": "uint256",
                    "name": "tokenId",
                    "type": "uint256"
                }
            ],
            "name": "Transfer",
            "type": "event"
        },
        {
            "inputs": [
                {
                    "internalType": "address",
                    "name": "to",
                    "type": "address"
                },
                {
                    "internalType": "uint256",
                    "name": "tokenId",
                    "type": "uint256"
                }
            ],
            "name": "approve",
            "outputs": [],
            "stateMutability": "nonpayable",
            "type": "function"
        },
        {
            "inputs": [
                {
                    "internalType": "address",
                    "name": "owner",
                    "type": "address"
                }
            ],
            "name": "balanceOf",
            "outputs": [
                {
                    "internalType": "uint256",
                    "name": "",
                    "type": "uint256"
                }
            ],
            "stateMutability": "view",
            "type": "function"
        },
        {
            "inputs": [
                {
                    "internalType": "uint256",
                    "name": "tokenId",
                    "type": "uint256"
                }
            ],
            "name": "getApproved",
            "outputs": [
                {
                    "internalType": "address",
                    "name": "",
                    "type": "address"
                }
            ],
            "stateMutability": "view",
            "type": "function"
        },
        {
            "inputs": [
                {
                    "internalType": "address",
                    "name": "owner",
                    "type": "address"
                },
                {
                    "internalType": "address",
                    "name": "operator",
                    "type": "address"
                }
            ],
            "name": "isApprovedForAll",
            "outputs": [
                {
                    "internalType": "bool",
                    "name": "",
                    "type": "bool"
                }
            ],
            "stateMutability": "view",
            "type": "function"
        },
        {
            "inputs": [
                {
                    "internalType": "uint256",
                    "name": "tokenId",
                    "type": "uint256"
                },
                {
                    "internalType": "string",
                    "name": "assetHash",
                    "type": "string"
                },
                {
                    "internalType": "string",
                    "name": "tokenURI",
                    "type": "string"
                }
            ],
            "name": "mintWithMetadata",
            "outputs": [],
            "stateMutability": "nonpayable",
            "type": "function"
        },
        {
            "inputs": [],
            "name": "name",
            "outputs": [
                {
                    "internalType": "string",
                    "name": "",
                    "type": "string"
                }
            ],
            "stateMutability": "view",
            "type": "function"
        },
        {
            "inputs": [
                {
                    "internalType": "uint256",
                    "name": "tokenId",
                    "type": "uint256"
                }
            ],
            "name": "ownerOf",
            "outputs": [
                {
                    "internalType": "address",
                    "name": "",
                    "type": "address"
                }
            ],
            "stateMutability": "view",
            "type": "function"
        },
        {
            "inputs": [
                {
                    "internalType": "address",
                    "name": "from",
                    "type": "address"
                },
                {
                    "internalType": "address",
                    "name": "to",
                    "type": "address"
                },
                {
                    "internalType": "uint256",
                    "name": "tokenId",
                    "type": "uint256"
                }
            ],
            "name": "safeTransferFrom",
            "outputs": [],
            "stateMutability": "nonpayable",
            "type": "function"
        },
        {
            "inputs": [
                {
                    "internalType": "address",
                    "name": "from",
                    "type": "address"
                },
                {
                    "internalType": "address",
                    "name": "to",
                    "type": "address"
                },
                {
                    "internalType": "uint256",
                    "name": "tokenId",
                    "type": "uint256"
                },
                {
                    "internalType": "bytes",
                    "name": "data",
                    "type": "bytes"
                }
            ],
            "name": "safeTransferFrom",
            "outputs": [],
            "stateMutability": "nonpayable",
            "type": "function"
        },
        {
            "inputs": [
                {
                    "internalType": "address",
                    "name": "operator",
                    "type": "address"
                },
                {
                    "internalType": "bool",
                    "name": "approved",
                    "type": "bool"
                }
            ],
            "name": "setApprovalForAll",
            "outputs": [],
            "stateMutability": "nonpayable",
            "type": "function"
        },
        {
            "inputs": [
                {
                    "internalType": "bytes4",
                    "name": "interfaceId",
                    "type": "bytes4"
                }
            ],
            "name": "supportsInterface",
            "outputs": [
                {
                    "internalType": "bool",
                    "name": "",
                    "type": "bool"
                }
            ],
            "stateMutability": "view",
            "type": "function"
        },
        {
            "inputs": [],
            "name": "symbol",
            "outputs": [
                {
                    "internalType": "string",
                    "name": "",
                    "type": "string"
                }
            ],
            "stateMutability": "view",
            "type": "function"
        },
        {
            "inputs": [
                {
                    "internalType": "uint256",
                    "name": "tokenId",
                    "type": "uint256"
                }
            ],
            "name": "tokenURI",
            "outputs": [
                {
                    "internalType": "string",
                    "name": "",
                    "type": "string"
                }
            ],
            "stateMutability": "view",
            "type": "function"
        },
        {
            "inputs": [
                {
                    "internalType": "address",
                    "name": "from",
                    "type": "address"
                },
                {
                    "internalType": "address",
                    "name": "to",
                    "type": "address"
                },
                {
                    "internalType": "uint256",
                    "name": "tokenId",
                    "type": "uint256"
                }
            ],
            "name": "transferFrom",
            "outputs": [],
            "stateMutability": "nonpayable",
            "type": "function"
        }
    ],
    "bytecode": "0x60806040523480156200001157600080fd5b5060405162001be638038062001be68339810160408190526200003491620001e1565b8151829082906200004d9060009060208501906200006e565b508051620000639060019060208401906200006e565b505050505062000288565b8280546200007c906200024b565b90600052602060002090601f016020900481019282620000a05760008555620000eb565b82601f10620000bb57805160ff1916838001178555620000eb565b82800160010185558215620000eb579182015b82811115620000eb578251825591602001919060010190620000ce565b50620000f9929150620000fd565b5090565b5b80821115620000f95760008155600101620000fe565b634e487b7160e01b600052604160045260246000fd5b600082601f8301126200013c57600080fd5b81516001600160401b038082111562000159576200015962000114565b604051601f8301601f19908116603f0116810190828211818310171562000184576200018462000114565b81604052838152602092508683858801011115620001a157600080fd5b600091505b83821015620001c55785820183015181830184015290820190620001a6565b83821115620001d75760008385830101525b9695505050505050565b60008060408385031215620001f557600080fd5b82516001600160401b03808211156200020d57600080fd5b6200021b868387016200012a565b935060208501519150808211156200023257600080fd5b5062000241858286016200012a565b9150509250929050565b600181811c908216806200026057607f821691505b602082108114156200028257634e487b7160e01b600052602260045260246000fd5b50919050565b61194e80620002986000396000f3fe608060405234801561001057600080fd5b50600436106100ea5760003560e01c806370a082311161008c578063a22cb46511610066578063a22cb465146101e1578063b88d4fde146101f4578063c87b56dd14610207578063e985e9c51461021a57600080fd5b806370a08231146101a557806380b6d94b146101c657806395d89b41146101d957600080fd5b8063095ea7b3116100c8578063095ea7b31461015757806323b872dd1461016c57806342842e0e1461017f5780636352211e1461019257600080fd5b806301ffc9a7146100ef57806306fdde0314610117578063081812fc1461012c575b600080fd5b6101026100fd366004611443565b610256565b60405190151581526020015b60405180910390f35b61011f6102f3565b60405161010e91906114b8565b61013f61013a3660046114cb565b610385565b6040516001600160a01b03909116815260200161010e565b61016a610165366004611500565b6103ac565b005b61016a61017a36600461152a565b6104e3565b61016a61018d36600461152a565b61056a565b61013f6101a03660046114cb565b610585565b6101b86101b3366004611566565b6105ea565b60405190815260200161010e565b61016a6101d436600461162d565b610684565b61011f6107c2565b61016a6101ef36600461169a565b6107d1565b61016a6102023660046116d6565b6107e0565b61011f6102153660046114cb565b61086e565b610102610228366004611752565b6001600160a01b03918216600090815260056020908152604080832093909416825291909152205460ff1690565b60006001600160e01b031982167f80ac58cd0000000000000000000000000000000000000000000000000000000014806102b957506001600160e01b031982167f5b5e139f00000000000000000000000000000000000000000000000000000000145b806102ed57507f01ffc9a7000000000000000000000000000000000000000000000000000000006001600160e01b03198316145b92915050565b60606000805461030290611785565b80601f016020809104026020016040519081016040528092919081815260200182805461032e90611785565b801561037b5780601f106103505761010080835404028352916020019161037b565b820191906000526020600020905b81548152906001019060200180831161035e57829003601f168201915b5050505050905090565b60006103908261097f565b506000908152600460205260409020546001600160a01b031690565b60006103b782610585565b9050806001600160a01b0316836001600160a01b031614156104465760405162461bcd60e51b815260206004820152602160248201527f4552433732313a20617070726f76616c20746f2063757272656e74206f776e6560448201527f720000000000000000000000000000000000000000000000000000000000000060648201526084015b60405180910390fd5b336001600160a01b038216148061046257506104628133610228565b6104d45760405162461bcd60e51b815260206004820152603e60248201527f4552433732313a20617070726f76652063616c6c6572206973206e6f7420746f60448201527f6b656e206f776e6572206e6f7220617070726f76656420666f7220616c6c0000606482015260840161043d565b6104de83836109e6565b505050565b6104ed3382610a61565b61055f5760405162461bcd60e51b815260206004820152602e60248201527f4552433732313a2063616c6c6572206973206e6f7420746f6b656e206f776e6560448201527f72206e6f7220617070726f766564000000000000000000000000000000000000606482015260840161043d565b6104de838383610adf565b6104de838383604051806020016040528060008152506107e0565b6000818152600260205260408120546001600160a01b0316806102ed5760405162461bcd60e51b815260206004820152601860248201527f4552433732313a20696e76616c696420746f6b656e2049440000000000000000604482015260640161043d565b60006001600160a01b0382166106685760405162461bcd60e51b815260206004820152602960248201527f4552433732313a2061646472657373207a65726f206973206e6f74206120766160448201527f6c6964206f776e65720000000000000000000000000000000000000000000000606482015260840161043d565b506001600160a01b031660009081526003602052604090205490565b60008381526008602052604090205460ff16600114156106e65760405162461bcd60e51b815260206004820152601860248201527f746f6b656e20494420616c726561647920636c61696d65640000000000000000604482015260640161043d565b60008381526008602052604090819020805460ff19166001179055516007906107109084906117c0565b9081526040519081900360200190205460ff16600114156107735760405162461bcd60e51b815260206004820152601460248201527f6861736820616c726561647920636c61696d6564000000000000000000000000604482015260640161043d565b600160078360405161078591906117c0565b908152604051908190036020019020805460ff9290921660ff199092169190911790556107b86107b23390565b84610cb9565b6104de8382610cd3565b60606001805461030290611785565b6107dc338383610d7c565b5050565b6107ea3383610a61565b61085c5760405162461bcd60e51b815260206004820152602e60248201527f4552433732313a2063616c6c6572206973206e6f7420746f6b656e206f776e6560448201527f72206e6f7220617070726f766564000000000000000000000000000000000000606482015260840161043d565b61086884848484610e4b565b50505050565b60606108798261097f565b6000828152600660205260408120805461089290611785565b80601f01602080910402602001604051908101604052809291908181526020018280546108be90611785565b801561090b5780601f106108e05761010080835404028352916020019161090b565b820191906000526020600020905b8154815290600101906020018083116108ee57829003601f168201915b50505050509050600061092960408051602081019091526000815290565b905080516000141561093c575092915050565b81511561096e5780826040516020016109569291906117dc565b60405160208183030381529060405292505050919050565b61097784610ec9565b949350505050565b6000818152600260205260409020546001600160a01b03166109e35760405162461bcd60e51b815260206004820152601860248201527f4552433732313a20696e76616c696420746f6b656e2049440000000000000000604482015260640161043d565b50565b6000818152600460205260409020805473ffffffffffffffffffffffffffffffffffffffff19166001600160a01b0384169081179091558190610a2882610585565b6001600160a01b03167f8c5be1e5ebec7d5bd14f71427d1e84f3dd0314c0f7b2291e5b200ac8c7c3b92560405160405180910390a45050565b600080610a6d83610585565b9050806001600160a01b0316846001600160a01b03161480610ab457506001600160a01b0380821660009081526005602090815260408083209388168352929052205460ff165b806109775750836001600160a01b0316610acd84610385565b6001600160a01b031614949350505050565b826001600160a01b0316610af282610585565b6001600160a01b031614610b6e5760405162461bcd60e51b815260206004820152602560248201527f4552433732313a207472616e736665722066726f6d20696e636f72726563742060448201527f6f776e6572000000000000000000000000000000000000000000000000000000606482015260840161043d565b6001600160a01b038216610be95760405162461bcd60e51b8152602060048201526024808201527f4552433732313a207472616e7366657220746f20746865207a65726f2061646460448201527f7265737300000000000000000000000000000000000000000000000000000000606482015260840161043d565b610bf46000826109e6565b6001600160a01b0383166000908152600360205260408120805460019290610c1d908490611821565b90915550506001600160a01b0382166000908152600360205260408120805460019290610c4b908490611838565b9091555050600081815260026020526040808220805473ffffffffffffffffffffffffffffffffffffffff19166001600160a01b0386811691821790925591518493918716917fddf252ad1be2c89b69c2b068fc378daa952ba7f163c4a11628f55a4df523b3ef91a4505050565b6107dc828260405180602001604052806000815250610f3d565b6000828152600260205260409020546001600160a01b0316610d5d5760405162461bcd60e51b815260206004820152602e60248201527f45524337323155524953746f726167653a2055524920736574206f66206e6f6e60448201527f6578697374656e7420746f6b656e000000000000000000000000000000000000606482015260840161043d565b600082815260066020908152604090912082516104de92840190611394565b816001600160a01b0316836001600160a01b03161415610dde5760405162461bcd60e51b815260206004820152601960248201527f4552433732313a20617070726f766520746f2063616c6c657200000000000000604482015260640161043d565b6001600160a01b03838116600081815260056020908152604080832094871680845294825291829020805460ff191686151590811790915591519182527f17307eab39ab6107e8899845ad3d59bd9653f200f220920489ca2b5937696c31910160405180910390a3505050565b610e56848484610adf565b610e6284848484610fbb565b6108685760405162461bcd60e51b815260206004820152603260248201527f4552433732313a207472616e7366657220746f206e6f6e20455243373231526560448201527131b2b4bb32b91034b6b83632b6b2b73a32b960711b606482015260840161043d565b6060610ed48261097f565b6000610eeb60408051602081019091526000815290565b90506000815111610f0b5760405180602001604052806000815250610f36565b80610f1584611113565b604051602001610f269291906117dc565b6040516020818303038152906040525b9392505050565b610f478383611245565b610f546000848484610fbb565b6104de5760405162461bcd60e51b815260206004820152603260248201527f4552433732313a207472616e7366657220746f206e6f6e20455243373231526560448201527131b2b4bb32b91034b6b83632b6b2b73a32b960711b606482015260840161043d565b60006001600160a01b0384163b1561110857604051630a85bd0160e11b81526001600160a01b0385169063150b7a0290610fff903390899088908890600401611850565b602060405180830381600087803b15801561101957600080fd5b505af1925050508015611049575060408051601f3d908101601f191682019092526110469181019061188c565b60015b6110ee573d808015611077576040519150601f19603f3d011682016040523d82523d6000602084013e61107c565b606091505b5080516110e65760405162461bcd60e51b815260206004820152603260248201527f4552433732313a207472616e7366657220746f206e6f6e20455243373231526560448201527131b2b4bb32b91034b6b83632b6b2b73a32b960711b606482015260840161043d565b805181602001fd5b6001600160e01b031916630a85bd0160e11b149050610977565b506001949350505050565b60608161115357505060408051808201909152600181527f3000000000000000000000000000000000000000000000000000000000000000602082015290565b8160005b811561117d5780611167816118a9565b91506111769050600a836118da565b9150611157565b60008167ffffffffffffffff81111561119857611198611581565b6040519080825280601f01601f1916602001820160405280156111c2576020820181803683370190505b5090505b8415610977576111d7600183611821565b91506111e4600a866118ee565b6111ef906030611838565b60f81b81838151811061120457611204611902565b60200101907effffffffffffffffffffffffffffffffffffffffffffffffffffffffffffff1916908160001a90535061123e600a866118da565b94506111c6565b6001600160a01b03821661129b5760405162461bcd60e51b815260206004820181905260248201527f4552433732313a206d696e7420746f20746865207a65726f2061646472657373604482015260640161043d565b6000818152600260205260409020546001600160a01b0316156113005760405162461bcd60e51b815260206004820152601c60248201527f4552433732313a20746f6b656e20616c7265616479206d696e74656400000000604482015260640161043d565b6001600160a01b0382166000908152600360205260408120805460019290611329908490611838565b9091555050600081815260026020526040808220805473ffffffffffffffffffffffffffffffffffffffff19166001600160a01b03861690811790915590518392907fddf252ad1be2c89b69c2b068fc378daa952ba7f163c4a11628f55a4df523b3ef908290a45050565b8280546113a090611785565b90600052602060002090601f0160209004810192826113c25760008555611408565b82601f106113db57805160ff1916838001178555611408565b82800160010185558215611408579182015b828111156114085782518255916020019190600101906113ed565b50611414929150611418565b5090565b5b808211156114145760008155600101611419565b6001600160e01b0319811681146109e357600080fd5b60006020828403121561145557600080fd5b8135610f368161142d565b60005b8381101561147b578181015183820152602001611463565b838111156108685750506000910152565b600081518084526114a4816020860160208601611460565b601f01601f19169290920160200192915050565b602081526000610f36602083018461148c565b6000602082840312156114dd57600080fd5b5035919050565b80356001600160a01b03811681146114fb57600080fd5b919050565b6000806040838503121561151357600080fd5b61151c836114e4565b946020939093013593505050565b60008060006060848603121561153f57600080fd5b611548846114e4565b9250611556602085016114e4565b9150604084013590509250925092565b60006020828403121561157857600080fd5b610f36826114e4565b634e487b7160e01b600052604160045260246000fd5b600067ffffffffffffffff808411156115b2576115b2611581565b604051601f8501601f19908116603f011681019082821181831017156115da576115da611581565b816040528093508581528686860111156115f357600080fd5b858560208301376000602087830101525050509392505050565b600082601f83011261161e57600080fd5b610f3683833560208501611597565b60008060006060848603121561164257600080fd5b83359250602084013567ffffffffffffffff8082111561166157600080fd5b61166d8783880161160d565b9350604086013591508082111561168357600080fd5b506116908682870161160d565b9150509250925092565b600080604083850312156116ad57600080fd5b6116b6836114e4565b9150602083013580151581146116cb57600080fd5b809150509250929050565b600080600080608085870312156116ec57600080fd5b6116f5856114e4565b9350611703602086016114e4565b925060408501359150606085013567ffffffffffffffff81111561172657600080fd5b8501601f8101871361173757600080fd5b61174687823560208401611597565b91505092959194509250565b6000806040838503121561176557600080fd5b61176e836114e4565b915061177c602084016114e4565b90509250929050565b600181811c9082168061179957607f821691505b602082108114156117ba57634e487b7160e01b600052602260045260246000fd5b50919050565b600082516117d2818460208701611460565b9190910192915050565b600083516117ee818460208801611460565b835190830190611802818360208801611460565b01949350505050565b634e487b7160e01b600052601160045260246000fd5b6000828210156118335761183361180b565b500390565b6000821982111561184b5761184b61180b565b500190565b60006001600160a01b03808716835280861660208401525083604083015260806060830152611882608083018461148c565b9695505050505050565b60006020828403121561189e57600080fd5b8151610f368161142d565b60006000198214156118bd576118bd61180b565b5060010190565b634e487b7160e01b600052601260045260246000fd5b6000826118e9576118e96118c4565b500490565b6000826118fd576118fd6118c4565b500690565b634e487b7160e01b600052603260045260246000fdfea2646970667358221220d968ed606c879601a35b2b249092aaa8e9a25d53fe09f18e99731ddfea236a3d64736f6c63430008090033",
    "linkReferences": {},
    "deployedLinkReferences": {}
}