{
  "_format": "hh-sol-artifact-1",
  "contractName": "Sotm721",
  "sourceName": "contracts/Sotm721.sol",
  "abi": [
    {
      "inputs": [
        {
          "internalType": "string",
          "name": "name_",
          "type": "string"
        },
        {
          "internalType": "string",
          "name": "symbol_",
          "type": "string"
        }
      ],
      "stateMutability": "nonpayable",
      "type": "constructor"
    },
    {
      "anonymous": false,
      "inputs": [
        {
          "indexed": true,
          "internalType": "address",
          "name": "owner",
          "type": "address"
        },
        {
          "indexed": true,
          "internalType": "address",
          "name": "approved",
          "type": "address"
        },
        {
          "indexed": true,
          "internalType": "uint256",
          "name": "tokenId",
          "type": "uint256"
        }
      ],
      "name": "Approval",
      "type": "event"
    },
    {
      "anonymous": false,
      "inputs": [
        {
          "indexed": true,
          "internalType": "address",
          "name": "owner",
          "type": "address"
        },
        {
          "indexed": true,
          "internalType": "address",
          "name": "operator",
          "type": "address"
        },
        {
          "indexed": false,
          "internalType": "bool",
          "name": "approved",
          "type": "bool"
        }
      ],
      "name": "ApprovalForAll",
      "type": "event"
    },
    {
      "anonymous": false,
      "inputs": [
        {
          "indexed": true,
          "internalType": "address",
          "name": "from",
          "type": "address"
        },
        {
          "indexed": true,
          "internalType": "address",
          "name": "to",
          "type": "address"
        },
        {
          "indexed": true,
          "internalType": "uint256",
          "name": "tokenId",
          "type": "uint256"
        }
      ],
      "name": "Transfer",
      "type": "event"
    },
    {
      "inputs": [
        {
          "internalType": "address",
          "name": "to",
          "type": "address"
        },
        {
          "internalType": "uint256",
          "name": "tokenId",
          "type": "uint256"
        }
      ],
      "name": "approve",
      "outputs": [],
      "stateMutability": "nonpayable",
      "type": "function"
    },
    {
      "inputs": [
        {
          "internalType": "address",
          "name": "owner",
          "type": "address"
        }
      ],
      "name": "balanceOf",
      "outputs": [
        {
          "internalType": "uint256",
          "name": "",
          "type": "uint256"
        }
      ],
      "stateMutability": "view",
      "type": "function"
    },
    {
      "inputs": [
        {
          "internalType": "uint256",
          "name": "tokenId",
          "type": "uint256"
        }
      ],
      "name": "getApproved",
      "outputs": [
        {
          "internalType": "address",
          "name": "",
          "type": "address"
        }
      ],
      "stateMutability": "view",
      "type": "function"
    },
    {
      "inputs": [
        {
          "internalType": "address",
          "name": "owner",
          "type": "address"
        },
        {
          "internalType": "address",
          "name": "operator",
          "type": "address"
        }
      ],
      "name": "isApprovedForAll",
      "outputs": [
        {
          "internalType": "bool",
          "name": "",
          "type": "bool"
        }
      ],
      "stateMutability": "view",
      "type": "function"
    },
    {
      "inputs": [
        {
          "internalType": "uint256",
          "name": "tokenId",
          "type": "uint256"
        }
      ],
      "name": "isClaimed",
      "outputs": [
        {
          "internalType": "uint256",
          "name": "",
          "type": "uint256"
        }
      ],
      "stateMutability": "view",
      "type": "function"
    },
    {
      "inputs": [
        {
          "internalType": "uint256",
          "name": "tokenId",
          "type": "uint256"
        },
        {
          "internalType": "string",
          "name": "assetHash",
          "type": "string"
        },
        {
          "internalType": "string",
          "name": "tokenURI",
          "type": "string"
        }
      ],
      "name": "mintWithMetadata",
      "outputs": [],
      "stateMutability": "nonpayable",
      "type": "function"
    },
    {
      "inputs": [],
      "name": "name",
      "outputs": [
        {
          "internalType": "string",
          "name": "",
          "type": "string"
        }
      ],
      "stateMutability": "view",
      "type": "function"
    },
    {
      "inputs": [
        {
          "internalType": "uint256",
          "name": "tokenId",
          "type": "uint256"
        }
      ],
      "name": "ownerOf",
      "outputs": [
        {
          "internalType": "address",
          "name": "",
          "type": "address"
        }
      ],
      "stateMutability": "view",
      "type": "function"
    },
    {
      "inputs": [
        {
          "internalType": "address",
          "name": "from",
          "type": "address"
        },
        {
          "internalType": "address",
          "name": "to",
          "type": "address"
        },
        {
          "internalType": "uint256",
          "name": "tokenId",
          "type": "uint256"
        }
      ],
      "name": "safeTransferFrom",
      "outputs": [],
      "stateMutability": "nonpayable",
      "type": "function"
    },
    {
      "inputs": [
        {
          "internalType": "address",
          "name": "from",
          "type": "address"
        },
        {
          "internalType": "address",
          "name": "to",
          "type": "address"
        },
        {
          "internalType": "uint256",
          "name": "tokenId",
          "type": "uint256"
        },
        {
          "internalType": "bytes",
          "name": "data",
          "type": "bytes"
        }
      ],
      "name": "safeTransferFrom",
      "outputs": [],
      "stateMutability": "nonpayable",
      "type": "function"
    },
    {
      "inputs": [
        {
          "internalType": "address",
          "name": "operator",
          "type": "address"
        },
        {
          "internalType": "bool",
          "name": "approved",
          "type": "bool"
        }
      ],
      "name": "setApprovalForAll",
      "outputs": [],
      "stateMutability": "nonpayable",
      "type": "function"
    },
    {
      "inputs": [
        {
          "internalType": "bytes4",
          "name": "interfaceId",
          "type": "bytes4"
        }
      ],
      "name": "supportsInterface",
      "outputs": [
        {
          "internalType": "bool",
          "name": "",
          "type": "bool"
        }
      ],
      "stateMutability": "view",
      "type": "function"
    },
    {
      "inputs": [],
      "name": "symbol",
      "outputs": [
        {
          "internalType": "string",
          "name": "",
          "type": "string"
        }
      ],
      "stateMutability": "view",
      "type": "function"
    },
    {
      "inputs": [
        {
          "internalType": "uint256",
          "name": "tokenId",
          "type": "uint256"
        }
      ],
      "name": "tokenURI",
      "outputs": [
        {
          "internalType": "string",
          "name": "",
          "type": "string"
        }
      ],
      "stateMutability": "view",
      "type": "function"
    },
    {
      "inputs": [
        {
          "internalType": "address",
          "name": "from",
          "type": "address"
        },
        {
          "internalType": "address",
          "name": "to",
          "type": "address"
        },
        {
          "internalType": "uint256",
          "name": "tokenId",
          "type": "uint256"
        }
      ],
      "name": "transferFrom",
      "outputs": [],
      "stateMutability": "nonpayable",
      "type": "function"
    }
  ],
  "bytecode": "0x60806040523480156200001157600080fd5b5060405162001c1438038062001c148339810160408190526200003491620001e1565b8151829082906200004d9060009060208501906200006e565b508051620000639060019060208401906200006e565b505050505062000288565b8280546200007c906200024b565b90600052602060002090601f016020900481019282620000a05760008555620000eb565b82601f10620000bb57805160ff1916838001178555620000eb565b82800160010185558215620000eb579182015b82811115620000eb578251825591602001919060010190620000ce565b50620000f9929150620000fd565b5090565b5b80821115620000f95760008155600101620000fe565b634e487b7160e01b600052604160045260246000fd5b600082601f8301126200013c57600080fd5b81516001600160401b038082111562000159576200015962000114565b604051601f8301601f19908116603f0116810190828211818310171562000184576200018462000114565b81604052838152602092508683858801011115620001a157600080fd5b600091505b83821015620001c55785820183015181830184015290820190620001a6565b83821115620001d75760008385830101525b9695505050505050565b60008060408385031215620001f557600080fd5b82516001600160401b03808211156200020d57600080fd5b6200021b868387016200012a565b935060208501519150808211156200023257600080fd5b5062000241858286016200012a565b9150509250929050565b600181811c908216806200026057607f821691505b602082108114156200028257634e487b7160e01b600052602260045260246000fd5b50919050565b61197c80620002986000396000f3fe608060405234801561001057600080fd5b50600436106100f55760003560e01c806370a0823111610097578063a22cb46511610066578063a22cb4651461020f578063b88d4fde14610222578063c87b56dd14610235578063e985e9c51461024857600080fd5b806370a08231146101b057806380b6d94b146101d157806395d89b41146101e45780639e34070f146101ec57600080fd5b8063095ea7b3116100d3578063095ea7b31461016257806323b872dd1461017757806342842e0e1461018a5780636352211e1461019d57600080fd5b806301ffc9a7146100fa57806306fdde0314610122578063081812fc14610137575b600080fd5b61010d610108366004611471565b610284565b60405190151581526020015b60405180910390f35b61012a610321565b60405161011991906114e6565b61014a6101453660046114f9565b6103b3565b6040516001600160a01b039091168152602001610119565b61017561017036600461152e565b6103da565b005b610175610185366004611558565b610511565b610175610198366004611558565b610598565b61014a6101ab3660046114f9565b6105b3565b6101c36101be366004611594565b610618565b604051908152602001610119565b6101756101df36600461165b565b6106b2565b61012a6107f0565b6101c36101fa3660046114f9565b60009081526008602052604090205460ff1690565b61017561021d3660046116c8565b6107ff565b610175610230366004611704565b61080e565b61012a6102433660046114f9565b61089c565b61010d610256366004611780565b6001600160a01b03918216600090815260056020908152604080832093909416825291909152205460ff1690565b60006001600160e01b031982167f80ac58cd0000000000000000000000000000000000000000000000000000000014806102e757506001600160e01b031982167f5b5e139f00000000000000000000000000000000000000000000000000000000145b8061031b57507f01ffc9a7000000000000000000000000000000000000000000000000000000006001600160e01b03198316145b92915050565b606060008054610330906117b3565b80601f016020809104026020016040519081016040528092919081815260200182805461035c906117b3565b80156103a95780601f1061037e576101008083540402835291602001916103a9565b820191906000526020600020905b81548152906001019060200180831161038c57829003601f168201915b5050505050905090565b60006103be826109ad565b506000908152600460205260409020546001600160a01b031690565b60006103e5826105b3565b9050806001600160a01b0316836001600160a01b031614156104745760405162461bcd60e51b815260206004820152602160248201527f4552433732313a20617070726f76616c20746f2063757272656e74206f776e6560448201527f720000000000000000000000000000000000000000000000000000000000000060648201526084015b60405180910390fd5b336001600160a01b038216148061049057506104908133610256565b6105025760405162461bcd60e51b815260206004820152603e60248201527f4552433732313a20617070726f76652063616c6c6572206973206e6f7420746f60448201527f6b656e206f776e6572206e6f7220617070726f76656420666f7220616c6c0000606482015260840161046b565b61050c8383610a14565b505050565b61051b3382610a8f565b61058d5760405162461bcd60e51b815260206004820152602e60248201527f4552433732313a2063616c6c6572206973206e6f7420746f6b656e206f776e6560448201527f72206e6f7220617070726f766564000000000000000000000000000000000000606482015260840161046b565b61050c838383610b0d565b61050c8383836040518060200160405280600081525061080e565b6000818152600260205260408120546001600160a01b03168061031b5760405162461bcd60e51b815260206004820152601860248201527f4552433732313a20696e76616c696420746f6b656e2049440000000000000000604482015260640161046b565b60006001600160a01b0382166106965760405162461bcd60e51b815260206004820152602960248201527f4552433732313a2061646472657373207a65726f206973206e6f74206120766160448201527f6c6964206f776e65720000000000000000000000000000000000000000000000606482015260840161046b565b506001600160a01b031660009081526003602052604090205490565b60008381526008602052604090205460ff16600114156107145760405162461bcd60e51b815260206004820152601860248201527f746f6b656e20494420616c726561647920636c61696d65640000000000000000604482015260640161046b565b60008381526008602052604090819020805460ff191660011790555160079061073e9084906117ee565b9081526040519081900360200190205460ff16600114156107a15760405162461bcd60e51b815260206004820152601460248201527f6861736820616c726561647920636c61696d6564000000000000000000000000604482015260640161046b565b60016007836040516107b391906117ee565b908152604051908190036020019020805460ff9290921660ff199092169190911790556107e66107e03390565b84610ce7565b61050c8382610d01565b606060018054610330906117b3565b61080a338383610daa565b5050565b6108183383610a8f565b61088a5760405162461bcd60e51b815260206004820152602e60248201527f4552433732313a2063616c6c6572206973206e6f7420746f6b656e206f776e6560448201527f72206e6f7220617070726f766564000000000000000000000000000000000000606482015260840161046b565b61089684848484610e79565b50505050565b60606108a7826109ad565b600082815260066020526040812080546108c0906117b3565b80601f01602080910402602001604051908101604052809291908181526020018280546108ec906117b3565b80156109395780601f1061090e57610100808354040283529160200191610939565b820191906000526020600020905b81548152906001019060200180831161091c57829003601f168201915b50505050509050600061095760408051602081019091526000815290565b905080516000141561096a575092915050565b81511561099c57808260405160200161098492919061180a565b60405160208183030381529060405292505050919050565b6109a584610ef7565b949350505050565b6000818152600260205260409020546001600160a01b0316610a115760405162461bcd60e51b815260206004820152601860248201527f4552433732313a20696e76616c696420746f6b656e2049440000000000000000604482015260640161046b565b50565b6000818152600460205260409020805473ffffffffffffffffffffffffffffffffffffffff19166001600160a01b0384169081179091558190610a56826105b3565b6001600160a01b03167f8c5be1e5ebec7d5bd14f71427d1e84f3dd0314c0f7b2291e5b200ac8c7c3b92560405160405180910390a45050565b600080610a9b836105b3565b9050806001600160a01b0316846001600160a01b03161480610ae257506001600160a01b0380821660009081526005602090815260408083209388168352929052205460ff165b806109a55750836001600160a01b0316610afb846103b3565b6001600160a01b031614949350505050565b826001600160a01b0316610b20826105b3565b6001600160a01b031614610b9c5760405162461bcd60e51b815260206004820152602560248201527f4552433732313a207472616e736665722066726f6d20696e636f72726563742060448201527f6f776e6572000000000000000000000000000000000000000000000000000000606482015260840161046b565b6001600160a01b038216610c175760405162461bcd60e51b8152602060048201526024808201527f4552433732313a207472616e7366657220746f20746865207a65726f2061646460448201527f7265737300000000000000000000000000000000000000000000000000000000606482015260840161046b565b610c22600082610a14565b6001600160a01b0383166000908152600360205260408120805460019290610c4b90849061184f565b90915550506001600160a01b0382166000908152600360205260408120805460019290610c79908490611866565b9091555050600081815260026020526040808220805473ffffffffffffffffffffffffffffffffffffffff19166001600160a01b0386811691821790925591518493918716917fddf252ad1be2c89b69c2b068fc378daa952ba7f163c4a11628f55a4df523b3ef91a4505050565b61080a828260405180602001604052806000815250610f6b565b6000828152600260205260409020546001600160a01b0316610d8b5760405162461bcd60e51b815260206004820152602e60248201527f45524337323155524953746f726167653a2055524920736574206f66206e6f6e60448201527f6578697374656e7420746f6b656e000000000000000000000000000000000000606482015260840161046b565b6000828152600660209081526040909120825161050c928401906113c2565b816001600160a01b0316836001600160a01b03161415610e0c5760405162461bcd60e51b815260206004820152601960248201527f4552433732313a20617070726f766520746f2063616c6c657200000000000000604482015260640161046b565b6001600160a01b03838116600081815260056020908152604080832094871680845294825291829020805460ff191686151590811790915591519182527f17307eab39ab6107e8899845ad3d59bd9653f200f220920489ca2b5937696c31910160405180910390a3505050565b610e84848484610b0d565b610e9084848484610fe9565b6108965760405162461bcd60e51b815260206004820152603260248201527f4552433732313a207472616e7366657220746f206e6f6e20455243373231526560448201527131b2b4bb32b91034b6b83632b6b2b73a32b960711b606482015260840161046b565b6060610f02826109ad565b6000610f1960408051602081019091526000815290565b90506000815111610f395760405180602001604052806000815250610f64565b80610f4384611141565b604051602001610f5492919061180a565b6040516020818303038152906040525b9392505050565b610f758383611273565b610f826000848484610fe9565b61050c5760405162461bcd60e51b815260206004820152603260248201527f4552433732313a207472616e7366657220746f206e6f6e20455243373231526560448201527131b2b4bb32b91034b6b83632b6b2b73a32b960711b606482015260840161046b565b60006001600160a01b0384163b1561113657604051630a85bd0160e11b81526001600160a01b0385169063150b7a029061102d90339089908890889060040161187e565b602060405180830381600087803b15801561104757600080fd5b505af1925050508015611077575060408051601f3d908101601f19168201909252611074918101906118ba565b60015b61111c573d8080156110a5576040519150601f19603f3d011682016040523d82523d6000602084013e6110aa565b606091505b5080516111145760405162461bcd60e51b815260206004820152603260248201527f4552433732313a207472616e7366657220746f206e6f6e20455243373231526560448201527131b2b4bb32b91034b6b83632b6b2b73a32b960711b606482015260840161046b565b805181602001fd5b6001600160e01b031916630a85bd0160e11b1490506109a5565b506001949350505050565b60608161118157505060408051808201909152600181527f3000000000000000000000000000000000000000000000000000000000000000602082015290565b8160005b81156111ab5780611195816118d7565b91506111a49050600a83611908565b9150611185565b60008167ffffffffffffffff8111156111c6576111c66115af565b6040519080825280601f01601f1916602001820160405280156111f0576020820181803683370190505b5090505b84156109a55761120560018361184f565b9150611212600a8661191c565b61121d906030611866565b60f81b81838151811061123257611232611930565b60200101907effffffffffffffffffffffffffffffffffffffffffffffffffffffffffffff1916908160001a90535061126c600a86611908565b94506111f4565b6001600160a01b0382166112c95760405162461bcd60e51b815260206004820181905260248201527f4552433732313a206d696e7420746f20746865207a65726f2061646472657373604482015260640161046b565b6000818152600260205260409020546001600160a01b03161561132e5760405162461bcd60e51b815260206004820152601c60248201527f4552433732313a20746f6b656e20616c7265616479206d696e74656400000000604482015260640161046b565b6001600160a01b0382166000908152600360205260408120805460019290611357908490611866565b9091555050600081815260026020526040808220805473ffffffffffffffffffffffffffffffffffffffff19166001600160a01b03861690811790915590518392907fddf252ad1be2c89b69c2b068fc378daa952ba7f163c4a11628f55a4df523b3ef908290a45050565b8280546113ce906117b3565b90600052602060002090601f0160209004810192826113f05760008555611436565b82601f1061140957805160ff1916838001178555611436565b82800160010185558215611436579182015b8281111561143657825182559160200191906001019061141b565b50611442929150611446565b5090565b5b808211156114425760008155600101611447565b6001600160e01b031981168114610a1157600080fd5b60006020828403121561148357600080fd5b8135610f648161145b565b60005b838110156114a9578181015183820152602001611491565b838111156108965750506000910152565b600081518084526114d281602086016020860161148e565b601f01601f19169290920160200192915050565b602081526000610f6460208301846114ba565b60006020828403121561150b57600080fd5b5035919050565b80356001600160a01b038116811461152957600080fd5b919050565b6000806040838503121561154157600080fd5b61154a83611512565b946020939093013593505050565b60008060006060848603121561156d57600080fd5b61157684611512565b925061158460208501611512565b9150604084013590509250925092565b6000602082840312156115a657600080fd5b610f6482611512565b634e487b7160e01b600052604160045260246000fd5b600067ffffffffffffffff808411156115e0576115e06115af565b604051601f8501601f19908116603f01168101908282118183101715611608576116086115af565b8160405280935085815286868601111561162157600080fd5b858560208301376000602087830101525050509392505050565b600082601f83011261164c57600080fd5b610f64838335602085016115c5565b60008060006060848603121561167057600080fd5b83359250602084013567ffffffffffffffff8082111561168f57600080fd5b61169b8783880161163b565b935060408601359150808211156116b157600080fd5b506116be8682870161163b565b9150509250925092565b600080604083850312156116db57600080fd5b6116e483611512565b9150602083013580151581146116f957600080fd5b809150509250929050565b6000806000806080858703121561171a57600080fd5b61172385611512565b935061173160208601611512565b925060408501359150606085013567ffffffffffffffff81111561175457600080fd5b8501601f8101871361176557600080fd5b611774878235602084016115c5565b91505092959194509250565b6000806040838503121561179357600080fd5b61179c83611512565b91506117aa60208401611512565b90509250929050565b600181811c908216806117c757607f821691505b602082108114156117e857634e487b7160e01b600052602260045260246000fd5b50919050565b6000825161180081846020870161148e565b9190910192915050565b6000835161181c81846020880161148e565b83519083019061183081836020880161148e565b01949350505050565b634e487b7160e01b600052601160045260246000fd5b60008282101561186157611861611839565b500390565b6000821982111561187957611879611839565b500190565b60006001600160a01b038087168352808616602084015250836040830152608060608301526118b060808301846114ba565b9695505050505050565b6000602082840312156118cc57600080fd5b8151610f648161145b565b60006000198214156118eb576118eb611839565b5060010190565b634e487b7160e01b600052601260045260246000fd5b600082611917576119176118f2565b500490565b60008261192b5761192b6118f2565b500690565b634e487b7160e01b600052603260045260246000fdfea26469706673582212207fa5470e89f13b3ac76004b335efe1c1d70707af32c884c7a320bf1cd950cdee64736f6c63430008090033",
  "linkReferences": {},
  "deployedLinkReferences": {}
}